{
  "contractName": "SolnSquareVerifier",
  "abi": [
    {
      "constant": true,
      "inputs": [
        {
          "name": "interfaceId",
          "type": "bytes4"
        }
      ],
      "name": "supportsInterface",
      "outputs": [
        {
          "name": "",
          "type": "bool"
        }
      ],
      "payable": false,
      "stateMutability": "view",
      "type": "function"
    },
    {
      "constant": true,
      "inputs": [],
      "name": "name",
      "outputs": [
        {
          "name": "",
          "type": "string"
        }
      ],
      "payable": false,
      "stateMutability": "view",
      "type": "function"
    },
    {
      "constant": true,
      "inputs": [
        {
          "name": "tokenId",
          "type": "uint256"
        }
      ],
      "name": "getApproved",
      "outputs": [
        {
          "name": "",
          "type": "address"
        }
      ],
      "payable": false,
      "stateMutability": "view",
      "type": "function"
    },
    {
      "constant": false,
      "inputs": [
        {
          "name": "to",
          "type": "address"
        },
        {
          "name": "tokenId",
          "type": "uint256"
        }
      ],
      "name": "approve",
      "outputs": [],
      "payable": false,
      "stateMutability": "nonpayable",
      "type": "function"
    },
    {
      "constant": true,
      "inputs": [],
      "name": "totalSupply",
      "outputs": [
        {
          "name": "",
          "type": "uint256"
        }
      ],
      "payable": false,
      "stateMutability": "view",
      "type": "function"
    },
    {
      "constant": false,
      "inputs": [
        {
          "name": "from",
          "type": "address"
        },
        {
          "name": "to",
          "type": "address"
        },
        {
          "name": "tokenId",
          "type": "uint256"
        }
      ],
      "name": "transferFrom",
      "outputs": [],
      "payable": false,
      "stateMutability": "nonpayable",
      "type": "function"
    },
    {
      "constant": false,
      "inputs": [
        {
          "name": "_myid",
          "type": "bytes32"
        },
        {
          "name": "_result",
          "type": "string"
        }
      ],
      "name": "__callback",
      "outputs": [],
      "payable": false,
      "stateMutability": "nonpayable",
      "type": "function"
    },
    {
      "constant": true,
      "inputs": [
        {
          "name": "owner",
          "type": "address"
        },
        {
          "name": "index",
          "type": "uint256"
        }
      ],
      "name": "tokenOfOwnerByIndex",
      "outputs": [
        {
          "name": "",
          "type": "uint256"
        }
      ],
      "payable": false,
      "stateMutability": "view",
      "type": "function"
    },
    {
      "constant": false,
      "inputs": [
        {
          "name": "_myid",
          "type": "bytes32"
        },
        {
          "name": "_result",
          "type": "string"
        },
        {
          "name": "_proof",
          "type": "bytes"
        }
      ],
      "name": "__callback",
      "outputs": [],
      "payable": false,
      "stateMutability": "nonpayable",
      "type": "function"
    },
    {
      "constant": false,
      "inputs": [],
      "name": "unpause",
      "outputs": [],
      "payable": false,
      "stateMutability": "nonpayable",
      "type": "function"
    },
    {
      "constant": false,
      "inputs": [
        {
          "name": "to",
          "type": "address"
        },
        {
          "name": "tokenId",
          "type": "uint256"
        }
      ],
      "name": "mint",
      "outputs": [
        {
          "name": "",
          "type": "bool"
        }
      ],
      "payable": false,
      "stateMutability": "nonpayable",
      "type": "function"
    },
    {
      "constant": false,
      "inputs": [
        {
          "name": "from",
          "type": "address"
        },
        {
          "name": "to",
          "type": "address"
        },
        {
          "name": "tokenId",
          "type": "uint256"
        }
      ],
      "name": "safeTransferFrom",
      "outputs": [],
      "payable": false,
      "stateMutability": "nonpayable",
      "type": "function"
    },
    {
      "constant": true,
      "inputs": [
        {
          "name": "index",
          "type": "uint256"
        }
      ],
      "name": "tokenByIndex",
      "outputs": [
        {
          "name": "",
          "type": "uint256"
        }
      ],
      "payable": false,
      "stateMutability": "view",
      "type": "function"
    },
    {
      "constant": false,
      "inputs": [
        {
          "name": "a",
          "type": "uint256[2]"
        },
        {
          "name": "b",
          "type": "uint256[2][2]"
        },
        {
          "name": "c",
          "type": "uint256[2]"
        },
        {
          "name": "input",
          "type": "uint256[2]"
        }
      ],
      "name": "verifyTx",
      "outputs": [
        {
          "name": "r",
          "type": "bool"
        }
      ],
      "payable": false,
      "stateMutability": "nonpayable",
      "type": "function"
    },
    {
      "constant": true,
      "inputs": [
        {
          "name": "tokenId",
          "type": "uint256"
        }
      ],
      "name": "ownerOf",
      "outputs": [
        {
          "name": "",
          "type": "address"
        }
      ],
      "payable": false,
      "stateMutability": "view",
      "type": "function"
    },
    {
      "constant": true,
      "inputs": [
        {
          "name": "owner",
          "type": "address"
        }
      ],
      "name": "balanceOf",
      "outputs": [
        {
          "name": "",
          "type": "uint256"
        }
      ],
      "payable": false,
      "stateMutability": "view",
      "type": "function"
    },
    {
      "constant": false,
      "inputs": [],
      "name": "pause",
      "outputs": [],
      "payable": false,
      "stateMutability": "nonpayable",
      "type": "function"
    },
    {
      "constant": true,
      "inputs": [],
      "name": "owner",
      "outputs": [
        {
          "name": "",
          "type": "address"
        }
      ],
      "payable": false,
      "stateMutability": "view",
      "type": "function"
    },
    {
      "constant": true,
      "inputs": [],
      "name": "symbol",
      "outputs": [
        {
          "name": "",
          "type": "string"
        }
      ],
      "payable": false,
      "stateMutability": "view",
      "type": "function"
    },
    {
      "constant": false,
      "inputs": [
        {
          "name": "to",
          "type": "address"
        },
        {
          "name": "approved",
          "type": "bool"
        }
      ],
      "name": "setApprovalForAll",
      "outputs": [],
      "payable": false,
      "stateMutability": "nonpayable",
      "type": "function"
    },
    {
      "constant": false,
      "inputs": [
        {
          "name": "from",
          "type": "address"
        },
        {
          "name": "to",
          "type": "address"
        },
        {
          "name": "tokenId",
          "type": "uint256"
        },
        {
          "name": "_data",
          "type": "bytes"
        }
      ],
      "name": "safeTransferFrom",
      "outputs": [],
      "payable": false,
      "stateMutability": "nonpayable",
      "type": "function"
    },
    {
      "constant": true,
      "inputs": [
        {
          "name": "tokenId",
          "type": "uint256"
        }
      ],
      "name": "tokenURI",
      "outputs": [
        {
          "name": "",
          "type": "string"
        }
      ],
      "payable": false,
      "stateMutability": "view",
      "type": "function"
    },
    {
      "constant": true,
      "inputs": [],
      "name": "baseTokenURI",
      "outputs": [
        {
          "name": "",
          "type": "string"
        }
      ],
      "payable": false,
      "stateMutability": "view",
      "type": "function"
    },
    {
      "constant": true,
      "inputs": [
        {
          "name": "owner",
          "type": "address"
        },
        {
          "name": "operator",
          "type": "address"
        }
      ],
      "name": "isApprovedForAll",
      "outputs": [
        {
          "name": "",
          "type": "bool"
        }
      ],
      "payable": false,
      "stateMutability": "view",
      "type": "function"
    },
    {
      "constant": false,
      "inputs": [
        {
          "name": "newOwner",
          "type": "address"
        }
      ],
      "name": "transferOwnership",
      "outputs": [],
      "payable": false,
      "stateMutability": "nonpayable",
      "type": "function"
    },
    {
      "anonymous": false,
      "inputs": [
        {
          "indexed": false,
          "name": "to",
          "type": "address"
        },
        {
          "indexed": false,
          "name": "a",
          "type": "uint256[2]"
        },
        {
          "indexed": false,
          "name": "b",
          "type": "uint256[2][2]"
        },
        {
          "indexed": false,
          "name": "c",
          "type": "uint256[2]"
        },
        {
          "indexed": false,
          "name": "input",
          "type": "uint256[2]"
        }
      ],
      "name": "SolutionAdded",
      "type": "event"
    },
    {
      "anonymous": false,
      "inputs": [
        {
          "indexed": false,
          "name": "a",
          "type": "string"
        },
        {
          "indexed": false,
          "name": "b",
          "type": "string"
        }
      ],
      "name": "TestEvent",
      "type": "event"
    },
    {
      "anonymous": false,
      "inputs": [
        {
          "indexed": false,
          "name": "s",
          "type": "string"
        }
      ],
      "name": "Verified",
      "type": "event"
    },
    {
      "anonymous": false,
      "inputs": [
        {
          "indexed": true,
          "name": "from",
          "type": "address"
        },
        {
          "indexed": true,
          "name": "to",
          "type": "address"
        },
        {
          "indexed": true,
          "name": "tokenId",
          "type": "uint256"
        }
      ],
      "name": "Transfer",
      "type": "event"
    },
    {
      "anonymous": false,
      "inputs": [
        {
          "indexed": true,
          "name": "owner",
          "type": "address"
        },
        {
          "indexed": true,
          "name": "approved",
          "type": "address"
        },
        {
          "indexed": true,
          "name": "tokenId",
          "type": "uint256"
        }
      ],
      "name": "Approval",
      "type": "event"
    },
    {
      "anonymous": false,
      "inputs": [
        {
          "indexed": true,
          "name": "owner",
          "type": "address"
        },
        {
          "indexed": true,
          "name": "operator",
          "type": "address"
        },
        {
          "indexed": false,
          "name": "approved",
          "type": "bool"
        }
      ],
      "name": "ApprovalForAll",
      "type": "event"
    },
    {
      "anonymous": false,
      "inputs": [
        {
          "indexed": false,
          "name": "account",
          "type": "address"
        }
      ],
      "name": "Paused",
      "type": "event"
    },
    {
      "anonymous": false,
      "inputs": [
        {
          "indexed": false,
          "name": "account",
          "type": "address"
        }
      ],
      "name": "Unpaused",
      "type": "event"
    },
    {
      "anonymous": false,
      "inputs": [
        {
          "indexed": true,
          "name": "previousOwner",
          "type": "address"
        },
        {
          "indexed": true,
          "name": "newOwner",
          "type": "address"
        }
      ],
      "name": "OwnershipTransferred",
      "type": "event"
    },
    {
      "constant": true,
      "inputs": [
        {
          "name": "key",
          "type": "bytes32"
        }
      ],
      "name": "doesSolutionExist",
      "outputs": [
        {
          "name": "",
          "type": "bool"
        }
      ],
      "payable": false,
      "stateMutability": "view",
      "type": "function"
    },
    {
      "constant": true,
      "inputs": [
        {
          "name": "to",
          "type": "address"
        },
        {
          "name": "a",
          "type": "uint256[2]"
        },
        {
          "name": "b",
          "type": "uint256[2][2]"
        },
        {
          "name": "c",
          "type": "uint256[2]"
        },
        {
          "name": "input",
          "type": "uint256[2]"
        }
      ],
      "name": "createKey",
      "outputs": [
        {
          "name": "",
          "type": "bytes32"
        }
      ],
      "payable": false,
      "stateMutability": "pure",
      "type": "function"
    },
    {
      "constant": false,
      "inputs": [
        {
          "name": "to",
          "type": "address"
        },
        {
          "name": "a",
          "type": "uint256[2]"
        },
        {
          "name": "b",
          "type": "uint256[2][2]"
        },
        {
          "name": "c",
          "type": "uint256[2]"
        },
        {
          "name": "input",
          "type": "uint256[2]"
        }
      ],
      "name": "addSolution",
      "outputs": [],
      "payable": false,
      "stateMutability": "nonpayable",
      "type": "function"
    },
    {
      "constant": false,
      "inputs": [
        {
          "name": "to",
          "type": "address"
        },
        {
          "name": "tokenId",
          "type": "uint256"
        },
        {
          "name": "a",
          "type": "uint256[2]"
        },
        {
          "name": "b",
          "type": "uint256[2][2]"
        },
        {
          "name": "c",
          "type": "uint256[2]"
        },
        {
          "name": "input",
          "type": "uint256[2]"
        }
      ],
      "name": "mintNFT",
      "outputs": [],
      "payable": false,
      "stateMutability": "nonpayable",
      "type": "function"
    }
  ],
  "bytecode": "0x60806040526040518060400160405280600d81526020017f546f6b656e7920486f75736573000000000000000000000000000000000000008152506040518060400160405280600381526020017f544b4800000000000000000000000000000000000000000000000000000000008152506040518060600160405280603f8152602001620053e2603f9139336000806101000a81548173ffffffffffffffffffffffffffffffffffffffff021916908373ffffffffffffffffffffffffffffffffffffffff1602179055503373ffffffffffffffffffffffffffffffffffffffff16600073ffffffffffffffffffffffffffffffffffffffff167f8be0079c531659141344cd1fd0a4f28419497f9722a3daafe3b4186f6b6457e060405160405180910390a360008060146101000a81548160ff021916908315150217905550620001576301ffc9a760e01b620001f360201b60201c565b6200016f6380ac58cd60e01b620001f360201b60201c565b6200018763780e9d6360e01b620001f360201b60201c565b82600f90805190602001906200019f929190620002fe565b508160109080519060200190620001b8929190620002fe565b508060119080519060200190620001d1929190620002fe565b50620001ea635b5e139f60e01b620001f360201b60201c565b505050620003ad565b63ffffffff60e01b817bffffffffffffffffffffffffffffffffffffffffffffffffffffffff19161415151562000292576040517f08c379a00000000000000000000000000000000000000000000000000000000081526004018080602001828103825260148152602001807f496e76616c696420696e7465726661636520494400000000000000000000000081525060200191505060405180910390fd5b6001806000837bffffffffffffffffffffffffffffffffffffffffffffffffffffffff19167bffffffffffffffffffffffffffffffffffffffffffffffffffffffff1916815260200190815260200160002060006101000a81548160ff02191690831515021790555050565b828054600181600116156101000203166002900490600052602060002090601f016020900481019282601f106200034157805160ff191683800117855562000372565b8280016001018555821562000372579182015b828111156200037157825182559160200191906001019062000354565b5b50905062000381919062000385565b5090565b620003aa91905b80821115620003a65760008160009055506001016200038c565b5090565b90565b61502580620003bd6000396000f3fe608060405234801561001057600080fd5b50600436106101cf5760003560e01c8063621e9ec011610104578063b88d4fde116100a2578063d547cfb711610071578063d547cfb71461101f578063e985e9c5146110a2578063ea95deaf1461111e578063f2fde38b1461129f576101cf565b8063b88d4fde14610c98578063bd7cbbd614610d9d578063c60ca83614610f32578063c87b56dd14610f78576101cf565b80638456cb59116100de5780638456cb5914610b715780638da5cb5b14610b7b57806395d89b4114610bc5578063a22cb46514610c48576101cf565b8063621e9ec0146109325780636352211e14610aab57806370a0823114610b19576101cf565b80632f745c591161017157806340c10f191161014b57806340c10f191461069157806342842e0e146106f75780634f6ccce7146107655780635507dddc146107a7576101cf565b80632f745c59146104c957806338bbfa501461052b5780633f4ba83a14610687576101cf565b8063095ea7b3116101ad578063095ea7b31461032a57806318160ddd1461037857806323b872dd1461039657806327dc297e14610404576101cf565b806301ffc9a7146101d457806306fdde0314610239578063081812fc146102bc575b600080fd5b61021f600480360360208110156101ea57600080fd5b8101908080357bffffffffffffffffffffffffffffffffffffffffffffffffffffffff191690602001909291905050506112e3565b604051808215151515815260200191505060405180910390f35b61024161134b565b6040518080602001828103825283818151815260200191508051906020019080838360005b83811015610281578082015181840152602081019050610266565b50505050905090810190601f1680156102ae5780820380516001836020036101000a031916815260200191505b509250505060405180910390f35b6102e8600480360360208110156102d257600080fd5b81019080803590602001909291905050506113ed565b604051808273ffffffffffffffffffffffffffffffffffffffff1673ffffffffffffffffffffffffffffffffffffffff16815260200191505060405180910390f35b6103766004803603604081101561034057600080fd5b81019080803573ffffffffffffffffffffffffffffffffffffffff1690602001909291908035906020019092919050505061148a565b005b610380611667565b6040518082815260200191505060405180910390f35b610402600480360360608110156103ac57600080fd5b81019080803573ffffffffffffffffffffffffffffffffffffffff169060200190929190803573ffffffffffffffffffffffffffffffffffffffff16906020019092919080359060200190929190505050611674565b005b6104c76004803603604081101561041a57600080fd5b81019080803590602001909291908035906020019064010000000081111561044157600080fd5b82018360208201111561045357600080fd5b8035906020019184600183028401116401000000008311171561047557600080fd5b91908080601f016020809104026020016040519081016040528093929190818152602001838380828437600081840152601f19601f820116905080830192505050505050509192919290505050611702565b005b610515600480360360408110156104df57600080fd5b81019080803573ffffffffffffffffffffffffffffffffffffffff16906020019092919080359060200190929190505050611745565b6040518082815260200191505060405180910390f35b6106856004803603606081101561054157600080fd5b81019080803590602001909291908035906020019064010000000081111561056857600080fd5b82018360208201111561057a57600080fd5b8035906020019184600183028401116401000000008311171561059c57600080fd5b91908080601f016020809104026020016040519081016040528093929190818152602001838380828437600081840152601f19601f820116905080830192505050505050509192919290803590602001906401000000008111156105ff57600080fd5b82018360208201111561061157600080fd5b8035906020019184600183028401116401000000008311171561063357600080fd5b91908080601f016020809104026020016040519081016040528093929190818152602001838380828437600081840152601f19601f8201169050808301925050505050505091929192905050506117bc565b005b61068f6117c1565b005b6106dd600480360360408110156106a757600080fd5b81019080803573ffffffffffffffffffffffffffffffffffffffff1690602001909291908035906020019092919050505061198f565b604051808215151515815260200191505060405180910390f35b6107636004803603606081101561070d57600080fd5b81019080803573ffffffffffffffffffffffffffffffffffffffff169060200190929190803573ffffffffffffffffffffffffffffffffffffffff16906020019092919080359060200190929190505050611a72565b005b6107916004803603602081101561077b57600080fd5b8101908080359060200190929190505050611a92565b6040518082815260200191505060405180910390f35b61093060048036036101808110156107be57600080fd5b81019080803573ffffffffffffffffffffffffffffffffffffffff1690602001909291908035906020019092919080604001906002806020026040519081016040528092919082600260200280828437600081840152601f19601f82011690508083019250505050505091929192908060800190600280602002604051908101604052809291906000905b8282101561089d578382604002016002806020026040519081016040528092919082600260200280828437600081840152601f19601f82011690508083019250505050505081526020019060010190610849565b50505050919291929080604001906002806020026040519081016040528092919082600260200280828437600081840152601f19601f820116905080830192505050505050919291929080604001906002806020026040519081016040528092919082600260200280828437600081840152601f19601f8201169050808301925050505050509192919290505050611aca565b005b610a91600480360361014081101561094957600080fd5b8101908080604001906002806020026040519081016040528092919082600260200280828437600081840152601f19601f82011690508083019250505050505091929192908060800190600280602002604051908101604052809291906000905b828210156109fe578382604002016002806020026040519081016040528092919082600260200280828437600081840152601f19601f820116905080830192505050505050815260200190600101906109aa565b50505050919291929080604001906002806020026040519081016040528092919082600260200280828437600081840152601f19601f820116905080830192505050505050919291929080604001906002806020026040519081016040528092919082600260200280828437600081840152601f19601f8201169050808301925050505050509192919290505050611aea565b604051808215151515815260200191505060405180910390f35b610ad760048036036020811015610ac157600080fd5b8101908080359060200190929190505050611d4f565b604051808273ffffffffffffffffffffffffffffffffffffffff1673ffffffffffffffffffffffffffffffffffffffff16815260200191505060405180910390f35b610b5b60048036036020811015610b2f57600080fd5b81019080803573ffffffffffffffffffffffffffffffffffffffff169060200190929190505050611e19565b6040518082815260200191505060405180910390f35b610b79611e69565b005b610b83612038565b604051808273ffffffffffffffffffffffffffffffffffffffff1673ffffffffffffffffffffffffffffffffffffffff16815260200191505060405180910390f35b610bcd612061565b6040518080602001828103825283818151815260200191508051906020019080838360005b83811015610c0d578082015181840152602081019050610bf2565b50505050905090810190601f168015610c3a5780820380516001836020036101000a031916815260200191505b509250505060405180910390f35b610c9660048036036040811015610c5e57600080fd5b81019080803573ffffffffffffffffffffffffffffffffffffffff169060200190929190803515159060200190929190505050612103565b005b610d9b60048036036080811015610cae57600080fd5b81019080803573ffffffffffffffffffffffffffffffffffffffff169060200190929190803573ffffffffffffffffffffffffffffffffffffffff1690602001909291908035906020019092919080359060200190640100000000811115610d1557600080fd5b820183602082011115610d2757600080fd5b80359060200191846001830284011164010000000083111715610d4957600080fd5b91908080601f016020809104026020016040519081016040528093929190818152602001838380828437600081840152601f19601f82011690508083019250505050505050919291929050505061228b565b005b610f1c6004803603610160811015610db457600080fd5b81019080803573ffffffffffffffffffffffffffffffffffffffff16906020019092919080604001906002806020026040519081016040528092919082600260200280828437600081840152601f19601f82011690508083019250505050505091929192908060800190600280602002604051908101604052809291906000905b82821015610e89578382604002016002806020026040519081016040528092919082600260200280828437600081840152601f19601f82011690508083019250505050505081526020019060010190610e35565b50505050919291929080604001906002806020026040519081016040528092919082600260200280828437600081840152601f19601f820116905080830192505050505050919291929080604001906002806020026040519081016040528092919082600260200280828437600081840152601f19601f82011690508083019250505050505091929192905050506122b3565b6040518082815260200191505060405180910390f35b610f5e60048036036020811015610f4857600080fd5b81019080803590602001909291905050506123f9565b604051808215151515815260200191505060405180910390f35b610fa460048036036020811015610f8e57600080fd5b8101908080359060200190929190505050612423565b6040518080602001828103825283818151815260200191508051906020019080838360005b83811015610fe4578082015181840152602081019050610fc9565b50505050905090810190601f1680156110115780820380516001836020036101000a031916815260200191505b509250505060405180910390f35b611027612555565b6040518080602001828103825283818151815260200191508051906020019080838360005b8381101561106757808201518184015260208101905061104c565b50505050905090810190601f1680156110945780820380516001836020036101000a031916815260200191505b509250505060405180910390f35b611104600480360360408110156110b857600080fd5b81019080803573ffffffffffffffffffffffffffffffffffffffff169060200190929190803573ffffffffffffffffffffffffffffffffffffffff1690602001909291905050506125f7565b604051808215151515815260200191505060405180910390f35b61129d600480360361016081101561113557600080fd5b81019080803573ffffffffffffffffffffffffffffffffffffffff16906020019092919080604001906002806020026040519081016040528092919082600260200280828437600081840152601f19601f82011690508083019250505050505091929192908060800190600280602002604051908101604052809291906000905b8282101561120a578382604002016002806020026040519081016040528092919082600260200280828437600081840152601f19601f820116905080830192505050505050815260200190600101906111b6565b50505050919291929080604001906002806020026040519081016040528092919082600260200280828437600081840152601f19601f820116905080830192505050505050919291929080604001906002806020026040519081016040528092919082600260200280828437600081840152601f19601f820116905080830192505050505050919291929050505061268b565b005b6112e1600480360360208110156112b557600080fd5b81019080803573ffffffffffffffffffffffffffffffffffffffff169060200190929190505050612a7f565b005b600060016000837bffffffffffffffffffffffffffffffffffffffffffffffffffffffff19167bffffffffffffffffffffffffffffffffffffffffffffffffffffffff1916815260200190815260200160002060009054906101000a900460ff169050919050565b6060600f8054600181600116156101000203166002900480601f0160208091040260200160405190810160405280929190818152602001828054600181600116156101000203166002900480156113e35780601f106113b8576101008083540402835291602001916113e3565b820191906000526020600020905b8154815290600101906020018083116113c657829003601f168201915b5050505050905090565b60006113f882612ca6565b151561144f576040517f08c379a000000000000000000000000000000000000000000000000000000000815260040180806020018281038252602c815260200180614f4a602c913960400191505060405180910390fd5b6003600083815260200190815260200160002060009054906101000a900473ffffffffffffffffffffffffffffffffffffffff169050919050565b600061149582611d4f565b90508073ffffffffffffffffffffffffffffffffffffffff168373ffffffffffffffffffffffffffffffffffffffff161415151561151e576040517f08c379a0000000000000000000000000000000000000000000000000000000008152600401808060200182810382526031815260200180614ea26031913960400191505060405180910390fd5b8073ffffffffffffffffffffffffffffffffffffffff163373ffffffffffffffffffffffffffffffffffffffff16148061155e575061155d81336125f7565b5b15156115b5576040517f08c379a0000000000000000000000000000000000000000000000000000000008152600401808060200182810382526030815260200180614f766030913960400191505060405180910390fd5b826003600084815260200190815260200160002060006101000a81548173ffffffffffffffffffffffffffffffffffffffff021916908373ffffffffffffffffffffffffffffffffffffffff160217905550818373ffffffffffffffffffffffffffffffffffffffff168273ffffffffffffffffffffffffffffffffffffffff167f8c5be1e5ebec7d5bd14f71427d1e84f3dd0314c0f7b2291e5b200ac8c7c3b92560405160405180910390a4505050565b6000600880549050905090565b61167e3382612d18565b15156116f2576040517f08c379a000000000000000000000000000000000000000000000000000000000815260040180806020018281038252601f8152602001807f53656e646572206973206e6f7420617070726f766564206f72206f776e65720081525060200191505060405180910390fd5b6116fd838383612dad565b505050565b611741828260006040519080825280601f01601f19166020018201604052801561173b5781602001600182028038833980820191505090505b506117bc565b5050565b600061175083611e19565b8210151561175d57600080fd5b600660008473ffffffffffffffffffffffffffffffffffffffff1673ffffffffffffffffffffffffffffffffffffffff168152602001908152602001600020828154811015156117a957fe5b9060005260206000200154905092915050565b505050565b6000809054906101000a900473ffffffffffffffffffffffffffffffffffffffff1673ffffffffffffffffffffffffffffffffffffffff163373ffffffffffffffffffffffffffffffffffffffff16141515611885576040517f08c379a000000000000000000000000000000000000000000000000000000000815260040180806020018281038252601d8152602001807f43616c6c6572206d75737420626520636f6e7472616374206f776e657200000081525060200191505060405180910390fd5b60011515600060149054906101000a900460ff161515141515611910576040517f08c379a00000000000000000000000000000000000000000000000000000000081526004018080602001828103825260168152602001807f436f6e7472616374206973206e6f74207061757365640000000000000000000081525060200191505060405180910390fd5b60008060146101000a81548160ff0219169083151502179055507f5db9ee0a495bf2e6ff9c91a7834c1ba4fdd244a5e8aa4e537bd38aeae4b073aa33604051808273ffffffffffffffffffffffffffffffffffffffff1673ffffffffffffffffffffffffffffffffffffffff16815260200191505060405180910390a1565b60008060009054906101000a900473ffffffffffffffffffffffffffffffffffffffff1673ffffffffffffffffffffffffffffffffffffffff163373ffffffffffffffffffffffffffffffffffffffff16141515611a55576040517f08c379a000000000000000000000000000000000000000000000000000000000815260040180806020018281038252601d8152602001807f43616c6c6572206d75737420626520636f6e7472616374206f776e657200000081525060200191505060405180910390fd5b611a5f8383612dd1565b611a6882612df2565b6001905092915050565b611a8d8383836040518060200160405280600081525061228b565b505050565b6000611a9c611667565b82101515611aa957600080fd5b600882815481101515611ab857fe5b90600052602060002001549050919050565b611ad7868585858561268b565b611ae1868661198f565b50505050505050565b6000611af4614b1d565b6040518060400160405280876000600281101515611b0e57fe5b60200201518152602001876001600281101515611b2757fe5b6020020151815250816000018190525060405180604001604052806040518060400160405280886000600281101515611b5c57fe5b60200201516000600281101515611b6f57fe5b60200201518152602001886000600281101515611b8857fe5b60200201516001600281101515611b9b57fe5b602002015181525081526020016040518060400160405280886001600281101515611bc257fe5b60200201516000600281101515611bd557fe5b60200201518152602001886001600281101515611bee57fe5b60200201516001600281101515611c0157fe5b602002015181525081525081602001819052506040518060400160405280856000600281101515611c2e57fe5b60200201518152602001856001600281101515611c4757fe5b6020020151815250816040018190525060606002604051908082528060200260200182016040528015611c895781602001602082028038833980820191505090505b50905060008090505b6002811015611cd7578481600281101515611ca957fe5b60200201518282815181101515611cbc57fe5b90602001906020020181815250508080600101915050611c92565b506000611ce48284612f57565b1415611d40577f3f3cfdb26fb5f9f1786ab4f1a1f9cd4c0b5e726cbdfc26e495261731aad44e39604051808060200182810382526022815260200180614f286022913960400191505060405180910390a1600192505050611d47565b6000925050505b949350505050565b6000806002600084815260200190815260200160002060009054906101000a900473ffffffffffffffffffffffffffffffffffffffff169050600073ffffffffffffffffffffffffffffffffffffffff168173ffffffffffffffffffffffffffffffffffffffff1614151515611e10576040517f08c379a0000000000000000000000000000000000000000000000000000000008152600401808060200182810382526029815260200180614eff6029913960400191505060405180910390fd5b80915050919050565b6000611e62600460008473ffffffffffffffffffffffffffffffffffffffff1673ffffffffffffffffffffffffffffffffffffffff1681526020019081526020016000206130df565b9050919050565b6000809054906101000a900473ffffffffffffffffffffffffffffffffffffffff1673ffffffffffffffffffffffffffffffffffffffff163373ffffffffffffffffffffffffffffffffffffffff16141515611f2d576040517f08c379a000000000000000000000000000000000000000000000000000000000815260040180806020018281038252601d8152602001807f43616c6c6572206d75737420626520636f6e7472616374206f776e657200000081525060200191505060405180910390fd5b60001515600060149054906101000a900460ff161515141515611fb8576040517f08c379a00000000000000000000000000000000000000000000000000000000081526004018080602001828103825260128152602001807f436f6e747261637420697320706175736564000000000000000000000000000081525060200191505060405180910390fd5b6001600060146101000a81548160ff0219169083151502179055507f62e78cea01bee320cd4e420270b5ea74000d11b0c9f74754ebdbfc544b05a25833604051808273ffffffffffffffffffffffffffffffffffffffff1673ffffffffffffffffffffffffffffffffffffffff16815260200191505060405180910390a1565b60008060009054906101000a900473ffffffffffffffffffffffffffffffffffffffff16905090565b606060108054600181600116156101000203166002900480601f0160208091040260200160405190810160405280929190818152602001828054600181600116156101000203166002900480156120f95780601f106120ce576101008083540402835291602001916120f9565b820191906000526020600020905b8154815290600101906020018083116120dc57829003601f168201915b5050505050905090565b3373ffffffffffffffffffffffffffffffffffffffff168273ffffffffffffffffffffffffffffffffffffffff161415151561218a576040517f08c379a000000000000000000000000000000000000000000000000000000000815260040180806020018281038252602a815260200180614fd0602a913960400191505060405180910390fd5b80600560003373ffffffffffffffffffffffffffffffffffffffff1673ffffffffffffffffffffffffffffffffffffffff16815260200190815260200160002060008473ffffffffffffffffffffffffffffffffffffffff1673ffffffffffffffffffffffffffffffffffffffff16815260200190815260200160002060006101000a81548160ff0219169083151502179055508173ffffffffffffffffffffffffffffffffffffffff163373ffffffffffffffffffffffffffffffffffffffff167f17307eab39ab6107e8899845ad3d59bd9653f200f220920489ca2b5937696c3183604051808215151515815260200191505060405180910390a35050565b612296848484611674565b6122a2848484846130ed565b15156122ad57600080fd5b50505050565b60008585858585604051602001808673ffffffffffffffffffffffffffffffffffffffff1673ffffffffffffffffffffffffffffffffffffffff1660601b815260140185600260200280838360005b8381101561231d578082015181840152602081019050612302565b505050509050018460026000925b818410156123715782846020020151600260200280838360005b83811015612360578082015181840152602081019050612345565b50505050905001926001019261232b565b9250505083600260200280838360005b8381101561239c578082015181840152602081019050612381565b5050505090500182600260200280838360005b838110156123ca5780820151818401526020810190506123af565b505050509050019550505050505060405160208183030381529060405280519060200120905095945050505050565b60006014600083815260200190815260200160002060009054906101000a900460ff169050919050565b606061242e82612ca6565b15156124a2576040517f08c379a00000000000000000000000000000000000000000000000000000000081526004018080602001828103825260178152602001807f546f6b656e20494420646f6573206e6f7420657869737400000000000000000081525060200191505060405180910390fd5b601260008381526020019081526020016000208054600181600116156101000203166002900480601f0160208091040260200160405190810160405280929190818152602001828054600181600116156101000203166002900480156125495780601f1061251e57610100808354040283529160200191612549565b820191906000526020600020905b81548152906001019060200180831161252c57829003601f168201915b50505050509050919050565b606060118054600181600116156101000203166002900480601f0160208091040260200160405190810160405280929190818152602001828054600181600116156101000203166002900480156125ed5780601f106125c2576101008083540402835291602001916125ed565b820191906000526020600020905b8154815290600101906020018083116125d057829003601f168201915b5050505050905090565b6000600560008473ffffffffffffffffffffffffffffffffffffffff1673ffffffffffffffffffffffffffffffffffffffff16815260200190815260200160002060008373ffffffffffffffffffffffffffffffffffffffff1673ffffffffffffffffffffffffffffffffffffffff16815260200190815260200160002060009054906101000a900460ff16905092915050565b612693614b51565b85816000019073ffffffffffffffffffffffffffffffffffffffff16908173ffffffffffffffffffffffffffffffffffffffff16815250508481602001819052508381604001819052508281606001819052508181608001819052506000612712826000015183602001518460400151856060015186608001516122b3565b905060001515612721826123f9565b1515141515612798576040517f08c379a00000000000000000000000000000000000000000000000000000000081526004018080602001828103825260178152602001807f536f6c7574696f6e20616c72656164792065786973747300000000000000000081525060200191505060405180910390fd5b6127a486868686611aea565b1515612818576040517f08c379a000000000000000000000000000000000000000000000000000000000815260040180806020018281038252601e8152602001807f536f6c7574696f6e20636f756c64206e6f74206265207665726966696564000081525060200191505060405180910390fd5b6013829080600181540180825580915050906001820390600052602060002090600b02016000909192909190915060008201518160000160006101000a81548173ffffffffffffffffffffffffffffffffffffffff021916908373ffffffffffffffffffffffffffffffffffffffff1602179055506020820151816001019060026128a4929190614baf565b506040820151816003019060026128bc929190614bef565b506060820151816007019060026128d4929190614baf565b506080820151816009019060026128ec929190614baf565b5050505060016014600083815260200190815260200160002060006101000a81548160ff0219169083151502179055507fd9268e00e826a845b7c55571479b034a800794e0c239b0d000c4805f15010c1882600001518360200151846040015185606001518660800151604051808673ffffffffffffffffffffffffffffffffffffffff1673ffffffffffffffffffffffffffffffffffffffff16815260200185600260200280838360005b838110156129b3578082015181840152602081019050612998565b505050509050018460026000925b81841015612a075782846020020151600260200280838360005b838110156129f65780820151818401526020810190506129db565b5050505090500192600101926129c1565b9250505083600260200280838360005b83811015612a32578082015181840152602081019050612a17565b5050505090500182600260200280838360005b83811015612a60578082015181840152602081019050612a45565b505050509050019550505050505060405180910390a150505050505050565b6000809054906101000a900473ffffffffffffffffffffffffffffffffffffffff1673ffffffffffffffffffffffffffffffffffffffff163373ffffffffffffffffffffffffffffffffffffffff16141515612b43576040517f08c379a000000000000000000000000000000000000000000000000000000000815260040180806020018281038252601d8152602001807f43616c6c6572206d75737420626520636f6e7472616374206f776e657200000081525060200191505060405180910390fd5b600073ffffffffffffffffffffffffffffffffffffffff168173ffffffffffffffffffffffffffffffffffffffff1614151515612be8576040517f08c379a00000000000000000000000000000000000000000000000000000000081526004018080602001828103825260208152602001807f4e6577206f776e6572206d7573742062652061207265616c206164647265737381525060200191505060405180910390fd5b8073ffffffffffffffffffffffffffffffffffffffff166000809054906101000a900473ffffffffffffffffffffffffffffffffffffffff1673ffffffffffffffffffffffffffffffffffffffff167f8be0079c531659141344cd1fd0a4f28419497f9722a3daafe3b4186f6b6457e060405160405180910390a3806000806101000a81548173ffffffffffffffffffffffffffffffffffffffff021916908373ffffffffffffffffffffffffffffffffffffffff16021790555050565b6000806002600084815260200190815260200160002060009054906101000a900473ffffffffffffffffffffffffffffffffffffffff169050600073ffffffffffffffffffffffffffffffffffffffff168173ffffffffffffffffffffffffffffffffffffffff161415915050919050565b600080612d2483611d4f565b90508073ffffffffffffffffffffffffffffffffffffffff168473ffffffffffffffffffffffffffffffffffffffff161480612d9357508373ffffffffffffffffffffffffffffffffffffffff16612d7b846113ed565b73ffffffffffffffffffffffffffffffffffffffff16145b80612da45750612da381856125f7565b5b91505092915050565b612db88383836132d8565b612dc28382613537565b612dcc82826136db565b505050565b612ddb82826137a2565b612de582826136db565b612dee816139be565b5050565b612dfb81612ca6565b1515612e6f576040517f08c379a00000000000000000000000000000000000000000000000000000000081526004018080602001828103825260178152602001807f546f6b656e20494420646f6573206e6f7420657869737400000000000000000081525060200191505060405180910390fd5b606060118054600181600116156101000203166002900480601f016020809104026020016040519081016040528092919081815260200182805460018160011615610100020316600290048015612f075780601f10612edc57610100808354040283529160200191612f07565b820191906000526020600020905b815481529060010190602001808311612eea57829003601f168201915b505050505090506060612f1983613a0a565b90506060612f278383613b44565b905080601260008681526020019081526020016000209080519060200190612f50929190614c3f565b5050505050565b6000807f30644e72e131a029b85045b68181585d2833e84879b9709143e1f593f00000019050612f85614cbf565b612f8d613b88565b90508060800151516001865101141515612fa657600080fd5b612fae614d07565b6040518060400160405280600081526020016000815250905060008090505b865181101561305257838782815181101515612fe557fe5b90602001906020020151101515612ffb57600080fd5b6130438261303e85608001516001850181518110151561301757fe5b906020019060200201518a8581518110151561302f57fe5b90602001906020020151613fe1565b61407d565b91508080600101915050612fcd565b50613079818360800151600081518110151561306a57fe5b9060200190602002015161407d565b90506130bf856000015186602001516130918461413a565b85604001516130a38a6040015161413a565b87606001516130b5896000015161413a565b89602001516141d6565b15156130d157600193505050506130d9565b600093505050505b92915050565b600081600001549050919050565b600061310e8473ffffffffffffffffffffffffffffffffffffffff1661435a565b151561311d57600190506132d0565b60008473ffffffffffffffffffffffffffffffffffffffff1663150b7a02338887876040518563ffffffff1660e01b8152600401808573ffffffffffffffffffffffffffffffffffffffff1673ffffffffffffffffffffffffffffffffffffffff1681526020018473ffffffffffffffffffffffffffffffffffffffff1673ffffffffffffffffffffffffffffffffffffffff16815260200183815260200180602001828103825283818151815260200191508051906020019080838360005b838110156131f85780820151818401526020810190506131dd565b50505050905090810190601f1680156132255780820380516001836020036101000a031916815260200191505b5095505050505050602060405180830381600087803b15801561324757600080fd5b505af115801561325b573d6000803e3d6000fd5b505050506040513d602081101561327157600080fd5b8101908080519060200190929190505050905063150b7a0260e01b7bffffffffffffffffffffffffffffffffffffffffffffffffffffffff1916817bffffffffffffffffffffffffffffffffffffffffffffffffffffffff1916149150505b949350505050565b8273ffffffffffffffffffffffffffffffffffffffff166132f882611d4f565b73ffffffffffffffffffffffffffffffffffffffff16141515613366576040517f08c379a000000000000000000000000000000000000000000000000000000000815260040180806020018281038252602a815260200180614fa6602a913960400191505060405180910390fd5b600073ffffffffffffffffffffffffffffffffffffffff168273ffffffffffffffffffffffffffffffffffffffff16141515156133ee576040517f08c379a000000000000000000000000000000000000000000000000000000000815260040180806020018281038252602c815260200180614ed3602c913960400191505060405180910390fd5b6133f7816143a5565b61343e600460008573ffffffffffffffffffffffffffffffffffffffff1673ffffffffffffffffffffffffffffffffffffffff168152602001908152602001600020614465565b613485600460008473ffffffffffffffffffffffffffffffffffffffff1673ffffffffffffffffffffffffffffffffffffffff168152602001908152602001600020614488565b816002600083815260200190815260200160002060006101000a81548173ffffffffffffffffffffffffffffffffffffffff021916908373ffffffffffffffffffffffffffffffffffffffff160217905550808273ffffffffffffffffffffffffffffffffffffffff168473ffffffffffffffffffffffffffffffffffffffff167fddf252ad1be2c89b69c2b068fc378daa952ba7f163c4a11628f55a4df523b3ef60405160405180910390a4505050565b600061358f6001600660008673ffffffffffffffffffffffffffffffffffffffff1673ffffffffffffffffffffffffffffffffffffffff1681526020019081526020016000208054905061449e90919063ffffffff16565b90506000600760008481526020019081526020016000205490508181141515613682576000600660008673ffffffffffffffffffffffffffffffffffffffff1673ffffffffffffffffffffffffffffffffffffffff1681526020019081526020016000208381548110151561360057fe5b9060005260206000200154905080600660008773ffffffffffffffffffffffffffffffffffffffff1673ffffffffffffffffffffffffffffffffffffffff1681526020019081526020016000208381548110151561365a57fe5b9060005260206000200181905550816007600083815260200190815260200160002081905550505b600660008573ffffffffffffffffffffffffffffffffffffffff1673ffffffffffffffffffffffffffffffffffffffff1681526020019081526020016000208054809190600190036136d49190614d21565b5050505050565b600660008373ffffffffffffffffffffffffffffffffffffffff1673ffffffffffffffffffffffffffffffffffffffff168152602001908152602001600020805490506007600083815260200190815260200160002081905550600660008373ffffffffffffffffffffffffffffffffffffffff1673ffffffffffffffffffffffffffffffffffffffff1681526020019081526020016000208190806001815401808255809150509060018203906000526020600020016000909192909190915055505050565b6137ab81612ca6565b151515613820576040517f08c379a00000000000000000000000000000000000000000000000000000000081526004018080602001828103825260178152602001807f546f6b656e20494420616c72656164792065786973747300000000000000000081525060200191505060405180910390fd5b600073ffffffffffffffffffffffffffffffffffffffff168273ffffffffffffffffffffffffffffffffffffffff16141515156138c5576040517f08c379a000000000000000000000000000000000000000000000000000000000815260040180806020018281038252601b8152602001807f43616e6e6f74206d696e7420746f207a65726f2061646472657373000000000081525060200191505060405180910390fd5b816002600083815260200190815260200160002060006101000a81548173ffffffffffffffffffffffffffffffffffffffff021916908373ffffffffffffffffffffffffffffffffffffffff16021790555061395e600460008473ffffffffffffffffffffffffffffffffffffffff1673ffffffffffffffffffffffffffffffffffffffff168152602001908152602001600020614488565b808273ffffffffffffffffffffffffffffffffffffffff16600073ffffffffffffffffffffffffffffffffffffffff167fddf252ad1be2c89b69c2b068fc378daa952ba7f163c4a11628f55a4df523b3ef60405160405180910390a45050565b6008805490506009600083815260200190815260200160002081905550600881908060018154018082558091505090600182039060005260206000200160009091929091909150555050565b60606000821415613a52576040518060400160405280600181526020017f30000000000000000000000000000000000000000000000000000000000000008152509050613b3f565b600082905060005b600082141515613a80578080600101915050600a82811515613a7857fe5b049150613a5a565b6060816040519080825280601f01601f191660200182016040528015613ab55781602001600182028038833980820191505090505b50905060006001830390505b600086141515613b3757600a86811515613ad757fe5b0660300160f81b828280600190039350815181101515613af357fe5b9060200101907effffffffffffffffffffffffffffffffffffffffffffffffffffffffffffff1916908160001a905350600a86811515613b2f57fe5b049550613ac1565b819450505050505b919050565b6060613b8083836040518060200160405280600081525060405180602001604052806000815250604051806020016040528060008152506144e8565b905092915050565b613b90614cbf565b60405180604001604052807f1936c240636390dc823e3a728e94b208eb53c6756d81da57ec3425e05d43ac1081526020017f2d70ff78e8216bf29d58923a686d9738278b8ce2fd822e197c85b09286d155668152508160000181905250604051806040016040528060405180604001604052807f2b4daf047abe2e7f0b311118c1b963b63695dc0d769cea78849604434de055bf81526020017f29c13ecb6f33dbc4b3b8a02e2e255511ce4c26a8a2f299efcc94caf2de4fce00815250815260200160405180604001604052807f1da9020008df7f549751f8a251af3b2dc4a2ad3e0870de54acaedd9fc1b47e1781526020017f25ea0d7e2b29de431b86a943db30dbf4d98f68df9ca8a9628d14d1591e817d908152508152508160200181905250604051806040016040528060405180604001604052807f011016e22ae045444f50fb80f246ec486c7e02af09132cd38c4fcf484983e4f281526020017ee83c788c2878d1d5eba3ed49b0d81e4c0487dedc3e4d1c2baab5833785b62f815250815260200160405180604001604052807f05eb89e741ed5b5d611cebf92d1ed02cd6f3311089f0d400df7d9ced5a48fd4181526020017f132a90a3b0d369ccd66e2a5ba04a935e44d8ad5dca93a76bba592a578130a9118152508152508160400181905250604051806040016040528060405180604001604052807f065f6a3323a2abffd621fc263f348eb914904b68d5897729ae34a6b9d33f085281526020017f0c3b60f59d3bd50328a04c0ff6d979199685d0526f89f6ac29d6174ce24707a2815250815260200160405180604001604052807f26e7ebce2b44efef6b6315938e33f0a8ecc82dbad635c9efa681ed85bbb5998281526020017f12e0f3721230a0f38f6c9913048d5230fd2615ef3ff7f6ee4b20dfe0bdea1a8681525081525081606001819052506003604051908082528060200260200182016040528015613e7657816020015b613e63614d4d565b815260200190600190039081613e5b5790505b50816080018190525060405180604001604052807f1ef8d5d70234aa3e3d8fc4e3f1ca01c703182580b581106798f05b35fd5082c081526020017f2e468046d4ae35138e2032224925d5389712e5ca5e68f4d9c1e1858e7d65602d81525081608001516000815181101515613ee757fe5b9060200190602002018190525060405180604001604052807f0cefae0e3fa6aa25a4485ab7b21d32794d3431a4e4a5ca82ea427b831534c2c981526020017f23e3d2035b70884e547638b111870f5957f58ad8068f7a21470164ad361e1e8881525081608001516001815181101515613f5c57fe5b9060200190602002018190525060405180604001604052807f030ffe78ec3de150e8688db619bde78e21e894754e6be5ed83742677628b24bc81526020017f053392f88cfa9092dfbc0bd199d8159e56207779473c24fc601eff91bcd345ca81525081608001516002815181101515613fd157fe5b9060200190602002018190525090565b613fe9614d07565b613ff1614d67565b836000015181600060038110151561400557fe5b602002018181525050836020015181600160038110151561402257fe5b6020020181815250508281600260038110151561403b57fe5b6020020181815250506000606083608084600060076107d05a03f19050806000811461406657614068565bfe5b5080151561407557600080fd5b505092915050565b614085614d07565b61408d614d89565b83600001518160006004811015156140a157fe5b60200201818152505083602001518160016004811015156140be57fe5b60200201818152505082600001518160026004811015156140db57fe5b60200201818152505082602001518160036004811015156140f857fe5b602002018181525050600060608360c084600060066107d05a03f19050806000811461412357614125565bfe5b5080151561413257600080fd5b505092915050565b614142614d07565b60007f30644e72e131a029b85045b68181585d97816a916871ca8d3c208c16d87cfd4790506000836000015114801561417f575060008360200151145b156141a35760405180604001604052806000815260200160008152509150506141d1565b6040518060400160405280846000015181526020018285602001518115156141c757fe5b0683038152509150505b919050565b60006060600460405190808252806020026020018201604052801561421557816020015b614202614d4d565b8152602001906001900390816141fa5790505b5090506060600460405190808252806020026020018201604052801561425557816020015b614242614dab565b81526020019060019003908161423a5790505b5090508a82600081518110151561426857fe5b906020019060200201819052508882600181518110151561428557fe5b90602001906020020181905250868260028151811015156142a257fe5b90602001906020020181905250848260038151811015156142bf57fe5b90602001906020020181905250898160008151811015156142dc57fe5b90602001906020020181905250878160018151811015156142f957fe5b906020019060200201819052508581600281518110151561431657fe5b906020019060200201819052508381600381518110151561433357fe5b9060200190602002018190525061434a82826147c8565b9250505098975050505050505050565b60008060007fc5d2460186f7233c927e7db2dcc703c0e500b653ca82273b7bfad8045d85a47060001b9050833f915080821415801561439c57506000801b8214155b92505050919050565b600073ffffffffffffffffffffffffffffffffffffffff166003600083815260200190815260200160002060009054906101000a900473ffffffffffffffffffffffffffffffffffffffff1673ffffffffffffffffffffffffffffffffffffffff161415156144625760006003600083815260200190815260200160002060006101000a81548173ffffffffffffffffffffffffffffffffffffffff021916908373ffffffffffffffffffffffffffffffffffffffff1602179055505b50565b61447d6001826000015461449e90919063ffffffff16565b816000018190555050565b6001816000016000828254019250508190555050565b60006144e083836040518060400160405280601e81526020017f536166654d6174683a207375627472616374696f6e206f766572666c6f770000815250614a5b565b905092915050565b6060808690506060869050606086905060608690506060869050606081518351855187518951010101016040519080825280601f01601f1916602001820160405280156145445781602001600182028038833980820191505090505b509050606081905060008090506000809050600090505b88518110156145cf57888181518110151561457257fe5b90602001015160f81c60f81b838380600101945081518110151561459257fe5b9060200101907effffffffffffffffffffffffffffffffffffffffffffffffffffffffffffff1916908160001a905350808060010191505061455b565b600090505b87518110156146485787818151811015156145eb57fe5b90602001015160f81c60f81b838380600101945081518110151561460b57fe5b9060200101907effffffffffffffffffffffffffffffffffffffffffffffffffffffffffffff1916908160001a90535080806001019150506145d4565b600090505b86518110156146c157868181518110151561466457fe5b90602001015160f81c60f81b838380600101945081518110151561468457fe5b9060200101907effffffffffffffffffffffffffffffffffffffffffffffffffffffffffffff1916908160001a905350808060010191505061464d565b600090505b855181101561473a5785818151811015156146dd57fe5b90602001015160f81c60f81b83838060010194508151811015156146fd57fe5b9060200101907effffffffffffffffffffffffffffffffffffffffffffffffffffffffffffff1916908160001a90535080806001019150506146c6565b600090505b84518110156147b357848181518110151561475657fe5b90602001015160f81c60f81b838380600101945081518110151561477657fe5b9060200101907effffffffffffffffffffffffffffffffffffffffffffffffffffffffffffff1916908160001a905350808060010191505061473f565b82995050505050505050505095945050505050565b6000815183511415156147da57600080fd5b60008351905060006006820290506060816040519080825280602002602001820160405280156148195781602001602082028038833980820191505090505b50905060008090505b838110156149f757868181518110151561483857fe5b9060200190602002015160000151826000600684020181518110151561485a57fe5b9060200190602002018181525050868181518110151561487657fe5b9060200190602002015160200151826001600684020181518110151561489857fe5b906020019060200201818152505085818151811015156148b457fe5b906020019060200201516000015160006002811015156148d057fe5b602002015182600260068402018151811015156148e957fe5b9060200190602002018181525050858181518110151561490557fe5b9060200190602002015160000151600160028110151561492157fe5b6020020151826003600684020181518110151561493a57fe5b9060200190602002018181525050858181518110151561495657fe5b9060200190602002015160200151600060028110151561497257fe5b6020020151826004600684020181518110151561498b57fe5b906020019060200201818152505085818151811015156149a757fe5b906020019060200201516020015160016002811015156149c357fe5b602002015182600560068402018151811015156149dc57fe5b90602001906020020181815250508080600101915050614822565b50614a00614dd1565b60006020826020860260208601600060086107d05a03f190508060008114614a2757614a29565bfe5b50801515614a3657600080fd5b6000826000600181101515614a4757fe5b602002015114159550505050505092915050565b60008383111582901515614b0a576040517f08c379a00000000000000000000000000000000000000000000000000000000081526004018080602001828103825283818151815260200191508051906020019080838360005b83811015614acf578082015181840152602081019050614ab4565b50505050905090810190601f168015614afc5780820380516001836020036101000a031916815260200191505b509250505060405180910390fd5b5060008385039050809150509392505050565b604051806101000160405280614b31614d4d565b8152602001614b3e614dab565b8152602001614b4b614d4d565b81525090565b604051806101600160405280600073ffffffffffffffffffffffffffffffffffffffff168152602001614b82614df3565b8152602001614b8f614e15565b8152602001614b9c614df3565b8152602001614ba9614df3565b81525090565b8260028101928215614bde579160200282015b82811115614bdd578251825591602001919060010190614bc2565b5b509050614beb9190614e42565b5090565b82600280028101928215614c2e579160200282015b82811115614c2d57825182906002614c1d929190614baf565b5091602001919060020190614c04565b5b509050614c3b9190614e67565b5090565b828054600181600116156101000203166002900490600052602060002090601f016020900481019282601f10614c8057805160ff1916838001178555614cae565b82800160010185558215614cae579182015b82811115614cad578251825591602001919060010190614c92565b5b509050614cbb9190614e42565b5090565b604051806101e00160405280614cd3614d4d565b8152602001614ce0614dab565b8152602001614ced614dab565b8152602001614cfa614dab565b8152602001606081525090565b604051806040016040528060008152602001600081525090565b815481835581811115614d4857818360005260206000209182019101614d479190614e42565b5b505050565b604051806040016040528060008152602001600081525090565b6040518060600160405280600390602082028038833980820191505090505090565b6040518060800160405280600490602082028038833980820191505090505090565b6040518060800160405280614dbe614df3565b8152602001614dcb614df3565b81525090565b6040518060200160405280600190602082028038833980820191505090505090565b6040518060400160405280600290602082028038833980820191505090505090565b60405180608001604052806002905b614e2c614df3565b815260200190600190039081614e245790505090565b614e6491905b80821115614e60576000816000905550600101614e48565b5090565b90565b614e9091905b80821115614e8c5760008181614e839190614e93565b50600201614e6d565b5090565b90565b50600081556001016000905556fe476976656e20616464726573732063616e6e6f7420626520746865206f776e6572206f662074686520746f6b656e204944546f6b656e206d757374206265207472616e7366657272656420746f20612076616c696420616464726573734552433732313a206f776e657220717565727920666f72206e6f6e6578697374656e7420746f6b656e5472616e73616374696f6e207375636365737366756c6c792076657269666965642e4552433732313a20617070726f76656420717565727920666f72206e6f6e6578697374656e7420746f6b656e43616c6c657220646f6573206e6f742068617665207065726d697373696f6e20746f2061646420617070726f7665727346726f6d2061646472657373206973206e6f7420746865206f776e6572206f662074686520746f6b656e476976656e20616464726573732063616e6e6f74206265207468652073656e6465722061646472657373a165627a7a723058202913338fc2b403812492c6d69d7cc9674950c54946271af60414679f7f17c52d002968747470733a2f2f73332d75732d776573742d322e616d617a6f6e6177732e636f6d2f756461636974792d626c6f636b636861696e2f63617073746f6e652f",
  "source": "pragma solidity >=0.4.21 <0.6.0;\r\n\r\nimport \"./verifier.sol\";\r\nimport \"./ERC721Mintable.sol\";\r\n\r\n// TODO define a contract call to the zokrates generated solidity contract <Verifier> or <renamedVerifier>\r\n// contract MyVerifier is Verifier {\r\n//     function verifyTx(\r\n//             uint[2] memory a,\r\n//             uint[2][2] memory b,\r\n//             uint[2] memory c,\r\n//             uint[2] memory input\r\n//     ) public returns (bool r) {\r\n//         super.verifyTx(a, b, c, input);\r\n//     }\r\n// }\r\n\r\n// TODO define another contract named SolnSquareVerifier that inherits from your ERC721Mintable class\r\ncontract SolnSquareVerifier is TokenyHouses, Verifier {\r\n    struct Solution {\r\n        address to;\r\n        uint[2] a;\r\n        uint[2][2] b;\r\n        uint[2] c;\r\n        uint[2] input;\r\n    }\r\n\r\n    Solution[] solutions;\r\n    mapping(bytes32 => bool) uniqueSolutions;\r\n\r\n    event SolutionAdded(address to, uint[2] a, uint[2][2] b, uint[2] c, uint[2] input);\r\n    event TestEvent(string a, string b);\r\n\r\n    function doesSolutionExist(bytes32 key) public view returns (bool) {\r\n        return uniqueSolutions[key];\r\n    }\r\n\r\n    function createKey(address to, uint[2] memory a, uint[2][2] memory b, uint[2] memory c, uint[2] memory input) public pure returns (bytes32) {\r\n        return keccak256(abi.encodePacked(to, a, b, c, input));\r\n    }\r\n\r\n    function addSolution(address to, uint[2] memory a, uint[2][2] memory b, uint[2] memory c, uint[2] memory input) public {\r\n        Solution memory newSolution;\r\n        newSolution.to = to;\r\n        newSolution.a = a;\r\n        newSolution.b = b;\r\n        newSolution.c = c;\r\n        newSolution.input = input;\r\n        bytes32 newSolutionKey = createKey(newSolution.to, newSolution.a, newSolution.b, newSolution.c, newSolution.input);\r\n        require(doesSolutionExist(newSolutionKey) == false, \"Solution already exists\");\r\n        require(super.verifyTx(a, b, c, input), \"Solution could not be verified\");\r\n        solutions.push(newSolution);\r\n        uniqueSolutions[newSolutionKey] = true;\r\n        emit SolutionAdded(newSolution.to, newSolution.a, newSolution.b, newSolution.c, newSolution.input);\r\n    }\r\n\r\n    function mintNFT(address to, uint256 tokenId, uint[2] memory a, uint[2][2] memory b, uint[2] memory c, uint[2] memory input) public {\r\n        addSolution(to, a, b, c, input);\r\n        super.mint(to, tokenId);\r\n    }\r\n}\r\n\r\n\r\n// TODO define a solutions struct that can hold an index & an address\r\n\r\n\r\n// TODO define an array of the above struct\r\n\r\n\r\n// TODO define a mapping to store unique solutions submitted\r\n\r\n\r\n\r\n// TODO Create an event to emit when a solution is added\r\n\r\n\r\n\r\n// TODO Create a function to add the solutions to the array and emit the event\r\n\r\n\r\n\r\n// TODO Create a function to mint new NFT only after the solution has been verified\r\n//  - make sure the solution is unique (has not been used before)\r\n//  - make sure you handle metadata as well as tokenSuplly\r\n\r\n\r\n\r\n\r\n\r\n\r\n\r\n\r\n\r\n\r\n\r\n\r\n\r\n\r\n\r\n\r\n\r\n\r\n\r\n\r\n\r\n\r\n\r\n\r\n\r\n\r\n",
  "sourcePath": "C:\\Users\\Manthony\\Documents\\Nanodegree\\Blockchain-Capstone\\eth-contracts\\contracts\\SolnSquareVerifier.sol",
  "compiler": {
    "name": "solc",
    "version": "0.5.5+commit.47a71e8f.Emscripten.clang"
  },
  "schemaVersion": "3.0.23",
  "updatedAt": "2020-04-28T01:06:52.552Z",
  "devdoc": {
    "methods": {
      "isApprovedForAll(address,address)": {
        "details": "Tells whether an operator is approved by a given owner\r",
        "params": {
          "operator": "operator address which you want to query the approval of\r",
          "owner": "owner address which you want to query the approval of\r"
        },
        "return": "bool whether the given operator is approved by the given owner\r"
      },
      "setApprovalForAll(address,bool)": {
        "details": "Sets or unsets the approval of a given operator\r An operator is allowed to transfer all tokens of the sender on their behalf\r",
        "params": {
          "approved": "representing the status of the approval to be set\r",
          "to": "operator address to set the approval\r"
        }
      },
      "supportsInterface(bytes4)": {
        "details": "implement supportsInterface(bytes4) using a lookup table\r"
      },
      "tokenByIndex(uint256)": {
        "details": "Gets the token ID at a given index of all the tokens in this contract\r Reverts if the index is greater or equal to the total number of tokens\r",
        "params": {
          "index": "uint256 representing the index to be accessed of the tokens list\r"
        },
        "return": "uint256 token ID at the given index of the tokens list\r"
      },
      "tokenOfOwnerByIndex(address,uint256)": {
        "details": "Gets the token ID at a given index of the tokens list of the requested owner\r",
        "params": {
          "index": "uint256 representing the index to be accessed of the requested tokens list\r",
          "owner": "address owning the tokens list to be accessed\r"
        },
        "return": "uint256 token ID at the given index of the tokens list owned by the requested address\r"
      },
      "totalSupply()": {
        "details": "Gets the total amount of tokens stored by the contract\r",
        "return": "uint256 representing the total amount of tokens\r"
      }
    }
  },
  "userdoc": {
    "methods": {}
  }
}