{
  "contractName": "SolnSquareVerifier",
  "abi": [
    {
      "constant": true,
      "inputs": [
        {
          "name": "interfaceId",
          "type": "bytes4"
        }
      ],
      "name": "supportsInterface",
      "outputs": [
        {
          "name": "",
          "type": "bool"
        }
      ],
      "payable": false,
      "stateMutability": "view",
      "type": "function"
    },
    {
      "constant": true,
      "inputs": [
        {
          "name": "tokenId",
          "type": "uint256"
        }
      ],
      "name": "getApproved",
      "outputs": [
        {
          "name": "",
          "type": "address"
        }
      ],
      "payable": false,
      "stateMutability": "view",
      "type": "function"
    },
    {
      "constant": false,
      "inputs": [
        {
          "name": "to",
          "type": "address"
        },
        {
          "name": "tokenId",
          "type": "uint256"
        }
      ],
      "name": "approve",
      "outputs": [],
      "payable": false,
      "stateMutability": "nonpayable",
      "type": "function"
    },
    {
      "constant": true,
      "inputs": [],
      "name": "getSymbol",
      "outputs": [
        {
          "name": "",
          "type": "string"
        }
      ],
      "payable": false,
      "stateMutability": "view",
      "type": "function"
    },
    {
      "constant": true,
      "inputs": [],
      "name": "getName",
      "outputs": [
        {
          "name": "",
          "type": "string"
        }
      ],
      "payable": false,
      "stateMutability": "view",
      "type": "function"
    },
    {
      "constant": true,
      "inputs": [],
      "name": "totalSupply",
      "outputs": [
        {
          "name": "",
          "type": "uint256"
        }
      ],
      "payable": false,
      "stateMutability": "view",
      "type": "function"
    },
    {
      "constant": false,
      "inputs": [
        {
          "name": "from",
          "type": "address"
        },
        {
          "name": "to",
          "type": "address"
        },
        {
          "name": "tokenId",
          "type": "uint256"
        }
      ],
      "name": "transferFrom",
      "outputs": [],
      "payable": false,
      "stateMutability": "nonpayable",
      "type": "function"
    },
    {
      "constant": false,
      "inputs": [
        {
          "name": "_myid",
          "type": "bytes32"
        },
        {
          "name": "_result",
          "type": "string"
        }
      ],
      "name": "__callback",
      "outputs": [],
      "payable": false,
      "stateMutability": "nonpayable",
      "type": "function"
    },
    {
      "constant": true,
      "inputs": [
        {
          "name": "owner",
          "type": "address"
        },
        {
          "name": "index",
          "type": "uint256"
        }
      ],
      "name": "tokenOfOwnerByIndex",
      "outputs": [
        {
          "name": "",
          "type": "uint256"
        }
      ],
      "payable": false,
      "stateMutability": "view",
      "type": "function"
    },
    {
      "constant": false,
      "inputs": [
        {
          "name": "_myid",
          "type": "bytes32"
        },
        {
          "name": "_result",
          "type": "string"
        },
        {
          "name": "_proof",
          "type": "bytes"
        }
      ],
      "name": "__callback",
      "outputs": [],
      "payable": false,
      "stateMutability": "nonpayable",
      "type": "function"
    },
    {
      "constant": false,
      "inputs": [],
      "name": "unpause",
      "outputs": [],
      "payable": false,
      "stateMutability": "nonpayable",
      "type": "function"
    },
    {
      "constant": false,
      "inputs": [
        {
          "name": "to",
          "type": "address"
        },
        {
          "name": "tokenId",
          "type": "uint256"
        }
      ],
      "name": "mint",
      "outputs": [
        {
          "name": "",
          "type": "bool"
        }
      ],
      "payable": false,
      "stateMutability": "nonpayable",
      "type": "function"
    },
    {
      "constant": false,
      "inputs": [
        {
          "name": "from",
          "type": "address"
        },
        {
          "name": "to",
          "type": "address"
        },
        {
          "name": "tokenId",
          "type": "uint256"
        }
      ],
      "name": "safeTransferFrom",
      "outputs": [],
      "payable": false,
      "stateMutability": "nonpayable",
      "type": "function"
    },
    {
      "constant": true,
      "inputs": [
        {
          "name": "index",
          "type": "uint256"
        }
      ],
      "name": "tokenByIndex",
      "outputs": [
        {
          "name": "",
          "type": "uint256"
        }
      ],
      "payable": false,
      "stateMutability": "view",
      "type": "function"
    },
    {
      "constant": false,
      "inputs": [
        {
          "name": "a",
          "type": "uint256[2]"
        },
        {
          "name": "b",
          "type": "uint256[2][2]"
        },
        {
          "name": "c",
          "type": "uint256[2]"
        },
        {
          "name": "input",
          "type": "uint256[2]"
        }
      ],
      "name": "verifyTx",
      "outputs": [
        {
          "name": "r",
          "type": "bool"
        }
      ],
      "payable": false,
      "stateMutability": "nonpayable",
      "type": "function"
    },
    {
      "constant": true,
      "inputs": [
        {
          "name": "tokenId",
          "type": "uint256"
        }
      ],
      "name": "ownerOf",
      "outputs": [
        {
          "name": "",
          "type": "address"
        }
      ],
      "payable": false,
      "stateMutability": "view",
      "type": "function"
    },
    {
      "constant": true,
      "inputs": [
        {
          "name": "owner",
          "type": "address"
        }
      ],
      "name": "balanceOf",
      "outputs": [
        {
          "name": "",
          "type": "uint256"
        }
      ],
      "payable": false,
      "stateMutability": "view",
      "type": "function"
    },
    {
      "constant": false,
      "inputs": [],
      "name": "pause",
      "outputs": [],
      "payable": false,
      "stateMutability": "nonpayable",
      "type": "function"
    },
    {
      "constant": true,
      "inputs": [],
      "name": "owner",
      "outputs": [
        {
          "name": "",
          "type": "address"
        }
      ],
      "payable": false,
      "stateMutability": "view",
      "type": "function"
    },
    {
      "constant": false,
      "inputs": [
        {
          "name": "to",
          "type": "address"
        },
        {
          "name": "approved",
          "type": "bool"
        }
      ],
      "name": "setApprovalForAll",
      "outputs": [],
      "payable": false,
      "stateMutability": "nonpayable",
      "type": "function"
    },
    {
      "constant": false,
      "inputs": [
        {
          "name": "from",
          "type": "address"
        },
        {
          "name": "to",
          "type": "address"
        },
        {
          "name": "tokenId",
          "type": "uint256"
        },
        {
          "name": "_data",
          "type": "bytes"
        }
      ],
      "name": "safeTransferFrom",
      "outputs": [],
      "payable": false,
      "stateMutability": "nonpayable",
      "type": "function"
    },
    {
      "constant": true,
      "inputs": [],
      "name": "getBaseTokenURI",
      "outputs": [
        {
          "name": "",
          "type": "string"
        }
      ],
      "payable": false,
      "stateMutability": "view",
      "type": "function"
    },
    {
      "constant": true,
      "inputs": [
        {
          "name": "tokenId",
          "type": "uint256"
        }
      ],
      "name": "tokenURI",
      "outputs": [
        {
          "name": "",
          "type": "string"
        }
      ],
      "payable": false,
      "stateMutability": "view",
      "type": "function"
    },
    {
      "constant": true,
      "inputs": [
        {
          "name": "owner",
          "type": "address"
        },
        {
          "name": "operator",
          "type": "address"
        }
      ],
      "name": "isApprovedForAll",
      "outputs": [
        {
          "name": "",
          "type": "bool"
        }
      ],
      "payable": false,
      "stateMutability": "view",
      "type": "function"
    },
    {
      "constant": false,
      "inputs": [
        {
          "name": "newOwner",
          "type": "address"
        }
      ],
      "name": "transferOwnership",
      "outputs": [],
      "payable": false,
      "stateMutability": "nonpayable",
      "type": "function"
    },
    {
      "anonymous": false,
      "inputs": [
        {
          "indexed": false,
          "name": "to",
          "type": "address"
        },
        {
          "indexed": false,
          "name": "a",
          "type": "uint256[2]"
        },
        {
          "indexed": false,
          "name": "b",
          "type": "uint256[2][2]"
        },
        {
          "indexed": false,
          "name": "c",
          "type": "uint256[2]"
        },
        {
          "indexed": false,
          "name": "input",
          "type": "uint256[2]"
        }
      ],
      "name": "SolutionAdded",
      "type": "event"
    },
    {
      "anonymous": false,
      "inputs": [
        {
          "indexed": false,
          "name": "a",
          "type": "string"
        },
        {
          "indexed": false,
          "name": "b",
          "type": "string"
        }
      ],
      "name": "TestEvent",
      "type": "event"
    },
    {
      "anonymous": false,
      "inputs": [
        {
          "indexed": false,
          "name": "s",
          "type": "string"
        }
      ],
      "name": "Verified",
      "type": "event"
    },
    {
      "anonymous": false,
      "inputs": [
        {
          "indexed": true,
          "name": "from",
          "type": "address"
        },
        {
          "indexed": true,
          "name": "to",
          "type": "address"
        },
        {
          "indexed": true,
          "name": "tokenId",
          "type": "uint256"
        }
      ],
      "name": "Transfer",
      "type": "event"
    },
    {
      "anonymous": false,
      "inputs": [
        {
          "indexed": true,
          "name": "owner",
          "type": "address"
        },
        {
          "indexed": true,
          "name": "approved",
          "type": "address"
        },
        {
          "indexed": true,
          "name": "tokenId",
          "type": "uint256"
        }
      ],
      "name": "Approval",
      "type": "event"
    },
    {
      "anonymous": false,
      "inputs": [
        {
          "indexed": true,
          "name": "owner",
          "type": "address"
        },
        {
          "indexed": true,
          "name": "operator",
          "type": "address"
        },
        {
          "indexed": false,
          "name": "approved",
          "type": "bool"
        }
      ],
      "name": "ApprovalForAll",
      "type": "event"
    },
    {
      "anonymous": false,
      "inputs": [
        {
          "indexed": false,
          "name": "account",
          "type": "address"
        }
      ],
      "name": "Paused",
      "type": "event"
    },
    {
      "anonymous": false,
      "inputs": [
        {
          "indexed": false,
          "name": "account",
          "type": "address"
        }
      ],
      "name": "Unpaused",
      "type": "event"
    },
    {
      "anonymous": false,
      "inputs": [
        {
          "indexed": true,
          "name": "previousOwner",
          "type": "address"
        },
        {
          "indexed": true,
          "name": "newOwner",
          "type": "address"
        }
      ],
      "name": "OwnershipTransferred",
      "type": "event"
    },
    {
      "constant": true,
      "inputs": [
        {
          "name": "key",
          "type": "bytes32"
        }
      ],
      "name": "doesSolutionExist",
      "outputs": [
        {
          "name": "",
          "type": "bool"
        }
      ],
      "payable": false,
      "stateMutability": "view",
      "type": "function"
    },
    {
      "constant": true,
      "inputs": [
        {
          "name": "to",
          "type": "address"
        },
        {
          "name": "a",
          "type": "uint256[2]"
        },
        {
          "name": "b",
          "type": "uint256[2][2]"
        },
        {
          "name": "c",
          "type": "uint256[2]"
        },
        {
          "name": "input",
          "type": "uint256[2]"
        }
      ],
      "name": "createKey",
      "outputs": [
        {
          "name": "",
          "type": "bytes32"
        }
      ],
      "payable": false,
      "stateMutability": "pure",
      "type": "function"
    },
    {
      "constant": false,
      "inputs": [
        {
          "name": "to",
          "type": "address"
        },
        {
          "name": "a",
          "type": "uint256[2]"
        },
        {
          "name": "b",
          "type": "uint256[2][2]"
        },
        {
          "name": "c",
          "type": "uint256[2]"
        },
        {
          "name": "input",
          "type": "uint256[2]"
        }
      ],
      "name": "addSolution",
      "outputs": [],
      "payable": false,
      "stateMutability": "nonpayable",
      "type": "function"
    },
    {
      "constant": false,
      "inputs": [
        {
          "name": "to",
          "type": "address"
        },
        {
          "name": "tokenId",
          "type": "uint256"
        },
        {
          "name": "a",
          "type": "uint256[2]"
        },
        {
          "name": "b",
          "type": "uint256[2][2]"
        },
        {
          "name": "c",
          "type": "uint256[2]"
        },
        {
          "name": "input",
          "type": "uint256[2]"
        }
      ],
      "name": "mintNFT",
      "outputs": [],
      "payable": false,
      "stateMutability": "nonpayable",
      "type": "function"
    }
  ],
  "bytecode": "0x60806040526040518060400160405280600d81526020017f546f6b656e7920486f75736573000000000000000000000000000000000000008152506040518060400160405280600381526020017f544b4800000000000000000000000000000000000000000000000000000000008152506040518060600160405280603f815260200162005377603f9139336000806101000a81548173ffffffffffffffffffffffffffffffffffffffff021916908373ffffffffffffffffffffffffffffffffffffffff1602179055503373ffffffffffffffffffffffffffffffffffffffff16600073ffffffffffffffffffffffffffffffffffffffff167f8be0079c531659141344cd1fd0a4f28419497f9722a3daafe3b4186f6b6457e060405160405180910390a360008060146101000a81548160ff021916908315150217905550620001576301ffc9a760e01b620001f360201b60201c565b6200016f6380ac58cd60e01b620001f360201b60201c565b6200018763780e9d6360e01b620001f360201b60201c565b82600f90805190602001906200019f929190620002fe565b508160109080519060200190620001b8929190620002fe565b508060119080519060200190620001d1929190620002fe565b50620001ea635b5e139f60e01b620001f360201b60201c565b505050620003ad565b63ffffffff60e01b817bffffffffffffffffffffffffffffffffffffffffffffffffffffffff19161415151562000292576040517f08c379a00000000000000000000000000000000000000000000000000000000081526004018080602001828103825260148152602001807f496e76616c696420696e7465726661636520494400000000000000000000000081525060200191505060405180910390fd5b6001806000837bffffffffffffffffffffffffffffffffffffffffffffffffffffffff19167bffffffffffffffffffffffffffffffffffffffffffffffffffffffff1916815260200190815260200160002060006101000a81548160ff02191690831515021790555050565b828054600181600116156101000203166002900490600052602060002090601f016020900481019282601f106200034157805160ff191683800117855562000372565b8280016001018555821562000372579182015b828111156200037157825182559160200191906001019062000354565b5b50905062000381919062000385565b5090565b620003aa91905b80821115620003a65760008160009055506001016200038c565b5090565b90565b614fba80620003bd6000396000f3fe608060405234801561001057600080fd5b50600436106101cf5760003560e01c80635507dddc11610104578063b88d4fde116100a2578063c87b56dd11610071578063c87b56dd14610ffb578063e985e9c5146110a2578063ea95deaf1461111e578063f2fde38b1461129f576101cf565b8063b88d4fde14610c98578063bd7cbbd614610d9d578063bdc32be014610f32578063c60ca83614610fb5576101cf565b806370a08231116100de57806370a0823114610b9c5780638456cb5914610bf45780638da5cb5b14610bfe578063a22cb46514610c48576101cf565b80635507dddc1461082a578063621e9ec0146109b55780636352211e14610b2e576101cf565b806327dc297e116101715780633f4ba83a1161014b5780633f4ba83a1461070a57806340c10f191461071457806342842e0e1461077a5780634f6ccce7146107e8576101cf565b806327dc297e146104875780632f745c591461054c57806338bbfa50146105ae576101cf565b806315070401116101ad57806315070401146102f557806317d7de7c1461037857806318160ddd146103fb57806323b872dd14610419576101cf565b806301ffc9a7146101d4578063081812fc14610239578063095ea7b3146102a7575b600080fd5b61021f600480360360208110156101ea57600080fd5b8101908080357bffffffffffffffffffffffffffffffffffffffffffffffffffffffff191690602001909291905050506112e3565b604051808215151515815260200191505060405180910390f35b6102656004803603602081101561024f57600080fd5b810190808035906020019092919050505061134b565b604051808273ffffffffffffffffffffffffffffffffffffffff1673ffffffffffffffffffffffffffffffffffffffff16815260200191505060405180910390f35b6102f3600480360360408110156102bd57600080fd5b81019080803573ffffffffffffffffffffffffffffffffffffffff1690602001909291908035906020019092919050505061145f565b005b6102fd61163c565b6040518080602001828103825283818151815260200191508051906020019080838360005b8381101561033d578082015181840152602081019050610322565b50505050905090810190601f16801561036a5780820380516001836020036101000a031916815260200191505b509250505060405180910390f35b6103806116de565b6040518080602001828103825283818151815260200191508051906020019080838360005b838110156103c05780820151818401526020810190506103a5565b50505050905090810190601f1680156103ed5780820380516001836020036101000a031916815260200191505b509250505060405180910390f35b610403611780565b6040518082815260200191505060405180910390f35b6104856004803603606081101561042f57600080fd5b81019080803573ffffffffffffffffffffffffffffffffffffffff169060200190929190803573ffffffffffffffffffffffffffffffffffffffff1690602001909291908035906020019092919050505061178d565b005b61054a6004803603604081101561049d57600080fd5b8101908080359060200190929190803590602001906401000000008111156104c457600080fd5b8201836020820111156104d657600080fd5b803590602001918460018302840111640100000000831117156104f857600080fd5b91908080601f016020809104026020016040519081016040528093929190818152602001838380828437600081840152601f19601f82011690508083019250505050505050919291929050505061181b565b005b6105986004803603604081101561056257600080fd5b81019080803573ffffffffffffffffffffffffffffffffffffffff1690602001909291908035906020019092919050505061185e565b6040518082815260200191505060405180910390f35b610708600480360360608110156105c457600080fd5b8101908080359060200190929190803590602001906401000000008111156105eb57600080fd5b8201836020820111156105fd57600080fd5b8035906020019184600183028401116401000000008311171561061f57600080fd5b91908080601f016020809104026020016040519081016040528093929190818152602001838380828437600081840152601f19601f8201169050808301925050505050505091929192908035906020019064010000000081111561068257600080fd5b82018360208201111561069457600080fd5b803590602001918460018302840111640100000000831117156106b657600080fd5b91908080601f016020809104026020016040519081016040528093929190818152602001838380828437600081840152601f19601f8201169050808301925050505050505091929192905050506118d5565b005b6107126118da565b005b6107606004803603604081101561072a57600080fd5b81019080803573ffffffffffffffffffffffffffffffffffffffff16906020019092919080359060200190929190505050611aa8565b604051808215151515815260200191505060405180910390f35b6107e66004803603606081101561079057600080fd5b81019080803573ffffffffffffffffffffffffffffffffffffffff169060200190929190803573ffffffffffffffffffffffffffffffffffffffff16906020019092919080359060200190929190505050611b8b565b005b610814600480360360208110156107fe57600080fd5b8101908080359060200190929190505050611bab565b6040518082815260200191505060405180910390f35b6109b3600480360361018081101561084157600080fd5b81019080803573ffffffffffffffffffffffffffffffffffffffff1690602001909291908035906020019092919080604001906002806020026040519081016040528092919082600260200280828437600081840152601f19601f82011690508083019250505050505091929192908060800190600280602002604051908101604052809291906000905b82821015610920578382604002016002806020026040519081016040528092919082600260200280828437600081840152601f19601f820116905080830192505050505050815260200190600101906108cc565b50505050919291929080604001906002806020026040519081016040528092919082600260200280828437600081840152601f19601f820116905080830192505050505050919291929080604001906002806020026040519081016040528092919082600260200280828437600081840152601f19601f8201169050808301925050505050509192919290505050611be3565b005b610b1460048036036101408110156109cc57600080fd5b8101908080604001906002806020026040519081016040528092919082600260200280828437600081840152601f19601f82011690508083019250505050505091929192908060800190600280602002604051908101604052809291906000905b82821015610a81578382604002016002806020026040519081016040528092919082600260200280828437600081840152601f19601f82011690508083019250505050505081526020019060010190610a2d565b50505050919291929080604001906002806020026040519081016040528092919082600260200280828437600081840152601f19601f820116905080830192505050505050919291929080604001906002806020026040519081016040528092919082600260200280828437600081840152601f19601f8201169050808301925050505050509192919290505050611c03565b604051808215151515815260200191505060405180910390f35b610b5a60048036036020811015610b4457600080fd5b8101908080359060200190929190505050611e68565b604051808273ffffffffffffffffffffffffffffffffffffffff1673ffffffffffffffffffffffffffffffffffffffff16815260200191505060405180910390f35b610bde60048036036020811015610bb257600080fd5b81019080803573ffffffffffffffffffffffffffffffffffffffff169060200190929190505050611ea5565b6040518082815260200191505060405180910390f35b610bfc611ef5565b005b610c066120c4565b604051808273ffffffffffffffffffffffffffffffffffffffff1673ffffffffffffffffffffffffffffffffffffffff16815260200191505060405180910390f35b610c9660048036036040811015610c5e57600080fd5b81019080803573ffffffffffffffffffffffffffffffffffffffff1690602001909291908035151590602001909291905050506120ed565b005b610d9b60048036036080811015610cae57600080fd5b81019080803573ffffffffffffffffffffffffffffffffffffffff169060200190929190803573ffffffffffffffffffffffffffffffffffffffff1690602001909291908035906020019092919080359060200190640100000000811115610d1557600080fd5b820183602082011115610d2757600080fd5b80359060200191846001830284011164010000000083111715610d4957600080fd5b91908080601f016020809104026020016040519081016040528093929190818152602001838380828437600081840152601f19601f820116905080830192505050505050509192919290505050612275565b005b610f1c6004803603610160811015610db457600080fd5b81019080803573ffffffffffffffffffffffffffffffffffffffff16906020019092919080604001906002806020026040519081016040528092919082600260200280828437600081840152601f19601f82011690508083019250505050505091929192908060800190600280602002604051908101604052809291906000905b82821015610e89578382604002016002806020026040519081016040528092919082600260200280828437600081840152601f19601f82011690508083019250505050505081526020019060010190610e35565b50505050919291929080604001906002806020026040519081016040528092919082600260200280828437600081840152601f19601f820116905080830192505050505050919291929080604001906002806020026040519081016040528092919082600260200280828437600081840152601f19601f820116905080830192505050505050919291929050505061229d565b6040518082815260200191505060405180910390f35b610f3a6123e3565b6040518080602001828103825283818151815260200191508051906020019080838360005b83811015610f7a578082015181840152602081019050610f5f565b50505050905090810190601f168015610fa75780820380516001836020036101000a031916815260200191505b509250505060405180910390f35b610fe160048036036020811015610fcb57600080fd5b8101908080359060200190929190505050612485565b604051808215151515815260200191505060405180910390f35b6110276004803603602081101561101157600080fd5b81019080803590602001909291905050506124af565b6040518080602001828103825283818151815260200191508051906020019080838360005b8381101561106757808201518184015260208101905061104c565b50505050905090810190601f1680156110945780820380516001836020036101000a031916815260200191505b509250505060405180910390f35b611104600480360360408110156110b857600080fd5b81019080803573ffffffffffffffffffffffffffffffffffffffff169060200190929190803573ffffffffffffffffffffffffffffffffffffffff1690602001909291905050506125e1565b604051808215151515815260200191505060405180910390f35b61129d600480360361016081101561113557600080fd5b81019080803573ffffffffffffffffffffffffffffffffffffffff16906020019092919080604001906002806020026040519081016040528092919082600260200280828437600081840152601f19601f82011690508083019250505050505091929192908060800190600280602002604051908101604052809291906000905b8282101561120a578382604002016002806020026040519081016040528092919082600260200280828437600081840152601f19601f820116905080830192505050505050815260200190600101906111b6565b50505050919291929080604001906002806020026040519081016040528092919082600260200280828437600081840152601f19601f820116905080830192505050505050919291929080604001906002806020026040519081016040528092919082600260200280828437600081840152601f19601f8201169050808301925050505050509192919290505050612675565b005b6112e1600480360360208110156112b557600080fd5b81019080803573ffffffffffffffffffffffffffffffffffffffff169060200190929190505050612a69565b005b600060016000837bffffffffffffffffffffffffffffffffffffffffffffffffffffffff19167bffffffffffffffffffffffffffffffffffffffffffffffffffffffff1916815260200190815260200160002060009054906101000a900460ff169050919050565b60008073ffffffffffffffffffffffffffffffffffffffff166003600084815260200190815260200160002060009054906101000a900473ffffffffffffffffffffffffffffffffffffffff1673ffffffffffffffffffffffffffffffffffffffff1614151515611424576040517f08c379a000000000000000000000000000000000000000000000000000000000815260040180806020018281038252601d8152602001807f546f6b656e20617070726f76616c20646f6573206e6f7420657869737400000081525060200191505060405180910390fd5b6003600083815260200190815260200160002060009054906101000a900473ffffffffffffffffffffffffffffffffffffffff169050919050565b600061146a82611e68565b90508073ffffffffffffffffffffffffffffffffffffffff168373ffffffffffffffffffffffffffffffffffffffff16141515156114f3576040517f08c379a0000000000000000000000000000000000000000000000000000000008152600401808060200182810382526031815260200180614e8c6031913960400191505060405180910390fd5b8073ffffffffffffffffffffffffffffffffffffffff163373ffffffffffffffffffffffffffffffffffffffff161480611533575061153281336125e1565b5b151561158a576040517f08c379a0000000000000000000000000000000000000000000000000000000008152600401808060200182810382526030815260200180614f0b6030913960400191505060405180910390fd5b826003600084815260200190815260200160002060006101000a81548173ffffffffffffffffffffffffffffffffffffffff021916908373ffffffffffffffffffffffffffffffffffffffff160217905550818373ffffffffffffffffffffffffffffffffffffffff168273ffffffffffffffffffffffffffffffffffffffff167f8c5be1e5ebec7d5bd14f71427d1e84f3dd0314c0f7b2291e5b200ac8c7c3b92560405160405180910390a4505050565b606060108054600181600116156101000203166002900480601f0160208091040260200160405190810160405280929190818152602001828054600181600116156101000203166002900480156116d45780601f106116a9576101008083540402835291602001916116d4565b820191906000526020600020905b8154815290600101906020018083116116b757829003601f168201915b5050505050905090565b6060600f8054600181600116156101000203166002900480601f0160208091040260200160405190810160405280929190818152602001828054600181600116156101000203166002900480156117765780601f1061174b57610100808354040283529160200191611776565b820191906000526020600020905b81548152906001019060200180831161175957829003601f168201915b5050505050905090565b6000600880549050905090565b6117973382612c90565b151561180b576040517f08c379a000000000000000000000000000000000000000000000000000000000815260040180806020018281038252601f8152602001807f53656e646572206973206e6f7420617070726f766564206f72206f776e65720081525060200191505060405180910390fd5b611816838383612d25565b505050565b61185a828260006040519080825280601f01601f1916602001820160405280156118545781602001600182028038833980820191505090505b506118d5565b5050565b600061186983611ea5565b8210151561187657600080fd5b600660008473ffffffffffffffffffffffffffffffffffffffff1673ffffffffffffffffffffffffffffffffffffffff168152602001908152602001600020828154811015156118c257fe5b9060005260206000200154905092915050565b505050565b6000809054906101000a900473ffffffffffffffffffffffffffffffffffffffff1673ffffffffffffffffffffffffffffffffffffffff163373ffffffffffffffffffffffffffffffffffffffff1614151561199e576040517f08c379a000000000000000000000000000000000000000000000000000000000815260040180806020018281038252601d8152602001807f43616c6c6572206d75737420626520636f6e7472616374206f776e657200000081525060200191505060405180910390fd5b60011515600060149054906101000a900460ff161515141515611a29576040517f08c379a00000000000000000000000000000000000000000000000000000000081526004018080602001828103825260168152602001807f436f6e7472616374206973206e6f74207061757365640000000000000000000081525060200191505060405180910390fd5b60008060146101000a81548160ff0219169083151502179055507f5db9ee0a495bf2e6ff9c91a7834c1ba4fdd244a5e8aa4e537bd38aeae4b073aa33604051808273ffffffffffffffffffffffffffffffffffffffff1673ffffffffffffffffffffffffffffffffffffffff16815260200191505060405180910390a1565b60008060009054906101000a900473ffffffffffffffffffffffffffffffffffffffff1673ffffffffffffffffffffffffffffffffffffffff163373ffffffffffffffffffffffffffffffffffffffff16141515611b6e576040517f08c379a000000000000000000000000000000000000000000000000000000000815260040180806020018281038252601d8152602001807f43616c6c6572206d75737420626520636f6e7472616374206f776e657200000081525060200191505060405180910390fd5b611b788383612d49565b611b8182612d6a565b6001905092915050565b611ba683838360405180602001604052806000815250612275565b505050565b6000611bb5611780565b82101515611bc257600080fd5b600882815481101515611bd157fe5b90600052602060002001549050919050565b611bf08685858585612675565b611bfa8686611aa8565b50505050505050565b6000611c0d614b07565b6040518060400160405280876000600281101515611c2757fe5b60200201518152602001876001600281101515611c4057fe5b6020020151815250816000018190525060405180604001604052806040518060400160405280886000600281101515611c7557fe5b60200201516000600281101515611c8857fe5b60200201518152602001886000600281101515611ca157fe5b60200201516001600281101515611cb457fe5b602002015181525081526020016040518060400160405280886001600281101515611cdb57fe5b60200201516000600281101515611cee57fe5b60200201518152602001886001600281101515611d0757fe5b60200201516001600281101515611d1a57fe5b602002015181525081525081602001819052506040518060400160405280856000600281101515611d4757fe5b60200201518152602001856001600281101515611d6057fe5b6020020151815250816040018190525060606002604051908082528060200260200182016040528015611da25781602001602082028038833980820191505090505b50905060008090505b6002811015611df0578481600281101515611dc257fe5b60200201518282815181101515611dd557fe5b90602001906020020181815250508080600101915050611dab565b506000611dfd8284612ecf565b1415611e59577f3f3cfdb26fb5f9f1786ab4f1a1f9cd4c0b5e726cbdfc26e495261731aad44e39604051808060200182810382526022815260200180614ee96022913960400191505060405180910390a1600192505050611e60565b6000925050505b949350505050565b60006002600083815260200190815260200160002060009054906101000a900473ffffffffffffffffffffffffffffffffffffffff169050919050565b6000611eee600460008473ffffffffffffffffffffffffffffffffffffffff1673ffffffffffffffffffffffffffffffffffffffff168152602001908152602001600020613057565b9050919050565b6000809054906101000a900473ffffffffffffffffffffffffffffffffffffffff1673ffffffffffffffffffffffffffffffffffffffff163373ffffffffffffffffffffffffffffffffffffffff16141515611fb9576040517f08c379a000000000000000000000000000000000000000000000000000000000815260040180806020018281038252601d8152602001807f43616c6c6572206d75737420626520636f6e7472616374206f776e657200000081525060200191505060405180910390fd5b60001515600060149054906101000a900460ff161515141515612044576040517f08c379a00000000000000000000000000000000000000000000000000000000081526004018080602001828103825260128152602001807f436f6e747261637420697320706175736564000000000000000000000000000081525060200191505060405180910390fd5b6001600060146101000a81548160ff0219169083151502179055507f62e78cea01bee320cd4e420270b5ea74000d11b0c9f74754ebdbfc544b05a25833604051808273ffffffffffffffffffffffffffffffffffffffff1673ffffffffffffffffffffffffffffffffffffffff16815260200191505060405180910390a1565b60008060009054906101000a900473ffffffffffffffffffffffffffffffffffffffff16905090565b3373ffffffffffffffffffffffffffffffffffffffff168273ffffffffffffffffffffffffffffffffffffffff1614151515612174576040517f08c379a000000000000000000000000000000000000000000000000000000000815260040180806020018281038252602a815260200180614f65602a913960400191505060405180910390fd5b80600560003373ffffffffffffffffffffffffffffffffffffffff1673ffffffffffffffffffffffffffffffffffffffff16815260200190815260200160002060008473ffffffffffffffffffffffffffffffffffffffff1673ffffffffffffffffffffffffffffffffffffffff16815260200190815260200160002060006101000a81548160ff0219169083151502179055508173ffffffffffffffffffffffffffffffffffffffff163373ffffffffffffffffffffffffffffffffffffffff167f17307eab39ab6107e8899845ad3d59bd9653f200f220920489ca2b5937696c3183604051808215151515815260200191505060405180910390a35050565b61228084848461178d565b61228c84848484613065565b151561229757600080fd5b50505050565b60008585858585604051602001808673ffffffffffffffffffffffffffffffffffffffff1673ffffffffffffffffffffffffffffffffffffffff1660601b815260140185600260200280838360005b838110156123075780820151818401526020810190506122ec565b505050509050018460026000925b8184101561235b5782846020020151600260200280838360005b8381101561234a57808201518184015260208101905061232f565b505050509050019260010192612315565b9250505083600260200280838360005b8381101561238657808201518184015260208101905061236b565b5050505090500182600260200280838360005b838110156123b4578082015181840152602081019050612399565b505050509050019550505050505060405160208183030381529060405280519060200120905095945050505050565b606060118054600181600116156101000203166002900480601f01602080910402602001604051908101604052809291908181526020018280546001816001161561010002031660029004801561247b5780601f106124505761010080835404028352916020019161247b565b820191906000526020600020905b81548152906001019060200180831161245e57829003601f168201915b5050505050905090565b60006014600083815260200190815260200160002060009054906101000a900460ff169050919050565b60606124ba82613250565b151561252e576040517f08c379a00000000000000000000000000000000000000000000000000000000081526004018080602001828103825260178152602001807f546f6b656e20494420646f6573206e6f7420657869737400000000000000000081525060200191505060405180910390fd5b601260008381526020019081526020016000208054600181600116156101000203166002900480601f0160208091040260200160405190810160405280929190818152602001828054600181600116156101000203166002900480156125d55780601f106125aa576101008083540402835291602001916125d5565b820191906000526020600020905b8154815290600101906020018083116125b857829003601f168201915b50505050509050919050565b6000600560008473ffffffffffffffffffffffffffffffffffffffff1673ffffffffffffffffffffffffffffffffffffffff16815260200190815260200160002060008373ffffffffffffffffffffffffffffffffffffffff1673ffffffffffffffffffffffffffffffffffffffff16815260200190815260200160002060009054906101000a900460ff16905092915050565b61267d614b3b565b85816000019073ffffffffffffffffffffffffffffffffffffffff16908173ffffffffffffffffffffffffffffffffffffffff168152505084816020018190525083816040018190525082816060018190525081816080018190525060006126fc8260000151836020015184604001518560600151866080015161229d565b90506000151561270b82612485565b1515141515612782576040517f08c379a00000000000000000000000000000000000000000000000000000000081526004018080602001828103825260178152602001807f536f6c7574696f6e20616c72656164792065786973747300000000000000000081525060200191505060405180910390fd5b61278e86868686611c03565b1515612802576040517f08c379a000000000000000000000000000000000000000000000000000000000815260040180806020018281038252601e8152602001807f536f6c7574696f6e20636f756c64206e6f74206265207665726966696564000081525060200191505060405180910390fd5b6013829080600181540180825580915050906001820390600052602060002090600b02016000909192909190915060008201518160000160006101000a81548173ffffffffffffffffffffffffffffffffffffffff021916908373ffffffffffffffffffffffffffffffffffffffff16021790555060208201518160010190600261288e929190614b99565b506040820151816003019060026128a6929190614bd9565b506060820151816007019060026128be929190614b99565b506080820151816009019060026128d6929190614b99565b5050505060016014600083815260200190815260200160002060006101000a81548160ff0219169083151502179055507fd9268e00e826a845b7c55571479b034a800794e0c239b0d000c4805f15010c1882600001518360200151846040015185606001518660800151604051808673ffffffffffffffffffffffffffffffffffffffff1673ffffffffffffffffffffffffffffffffffffffff16815260200185600260200280838360005b8381101561299d578082015181840152602081019050612982565b505050509050018460026000925b818410156129f15782846020020151600260200280838360005b838110156129e05780820151818401526020810190506129c5565b5050505090500192600101926129ab565b9250505083600260200280838360005b83811015612a1c578082015181840152602081019050612a01565b5050505090500182600260200280838360005b83811015612a4a578082015181840152602081019050612a2f565b505050509050019550505050505060405180910390a150505050505050565b6000809054906101000a900473ffffffffffffffffffffffffffffffffffffffff1673ffffffffffffffffffffffffffffffffffffffff163373ffffffffffffffffffffffffffffffffffffffff16141515612b2d576040517f08c379a000000000000000000000000000000000000000000000000000000000815260040180806020018281038252601d8152602001807f43616c6c6572206d75737420626520636f6e7472616374206f776e657200000081525060200191505060405180910390fd5b600073ffffffffffffffffffffffffffffffffffffffff168173ffffffffffffffffffffffffffffffffffffffff1614151515612bd2576040517f08c379a00000000000000000000000000000000000000000000000000000000081526004018080602001828103825260208152602001807f4e6577206f776e6572206d7573742062652061207265616c206164647265737381525060200191505060405180910390fd5b8073ffffffffffffffffffffffffffffffffffffffff166000809054906101000a900473ffffffffffffffffffffffffffffffffffffffff1673ffffffffffffffffffffffffffffffffffffffff167f8be0079c531659141344cd1fd0a4f28419497f9722a3daafe3b4186f6b6457e060405160405180910390a3806000806101000a81548173ffffffffffffffffffffffffffffffffffffffff021916908373ffffffffffffffffffffffffffffffffffffffff16021790555050565b600080612c9c83611e68565b90508073ffffffffffffffffffffffffffffffffffffffff168473ffffffffffffffffffffffffffffffffffffffff161480612d0b57508373ffffffffffffffffffffffffffffffffffffffff16612cf38461134b565b73ffffffffffffffffffffffffffffffffffffffff16145b80612d1c5750612d1b81856125e1565b5b91505092915050565b612d308383836132c2565b612d3a8382613521565b612d4482826136c5565b505050565b612d53828261378c565b612d5d82826136c5565b612d66816139a8565b5050565b612d7381613250565b1515612de7576040517f08c379a00000000000000000000000000000000000000000000000000000000081526004018080602001828103825260178152602001807f546f6b656e20494420646f6573206e6f7420657869737400000000000000000081525060200191505060405180910390fd5b606060118054600181600116156101000203166002900480601f016020809104026020016040519081016040528092919081815260200182805460018160011615610100020316600290048015612e7f5780601f10612e5457610100808354040283529160200191612e7f565b820191906000526020600020905b815481529060010190602001808311612e6257829003601f168201915b505050505090506060612e91836139f4565b90506060612e9f8383613b2e565b905080601260008681526020019081526020016000209080519060200190612ec8929190614c29565b5050505050565b6000807f30644e72e131a029b85045b68181585d2833e84879b9709143e1f593f00000019050612efd614ca9565b612f05613b72565b90508060800151516001865101141515612f1e57600080fd5b612f26614cf1565b6040518060400160405280600081526020016000815250905060008090505b8651811015612fca57838782815181101515612f5d57fe5b90602001906020020151101515612f7357600080fd5b612fbb82612fb6856080015160018501815181101515612f8f57fe5b906020019060200201518a85815181101515612fa757fe5b90602001906020020151613fcb565b614067565b91508080600101915050612f45565b50612ff18183608001516000815181101515612fe257fe5b90602001906020020151614067565b90506130378560000151866020015161300984614124565b856040015161301b8a60400151614124565b876060015161302d8960000151614124565b89602001516141c0565b15156130495760019350505050613051565b600093505050505b92915050565b600081600001549050919050565b60006130868473ffffffffffffffffffffffffffffffffffffffff16614344565b15156130955760019050613248565b60008473ffffffffffffffffffffffffffffffffffffffff1663150b7a02338887876040518563ffffffff1660e01b8152600401808573ffffffffffffffffffffffffffffffffffffffff1673ffffffffffffffffffffffffffffffffffffffff1681526020018473ffffffffffffffffffffffffffffffffffffffff1673ffffffffffffffffffffffffffffffffffffffff16815260200183815260200180602001828103825283818151815260200191508051906020019080838360005b83811015613170578082015181840152602081019050613155565b50505050905090810190601f16801561319d5780820380516001836020036101000a031916815260200191505b5095505050505050602060405180830381600087803b1580156131bf57600080fd5b505af11580156131d3573d6000803e3d6000fd5b505050506040513d60208110156131e957600080fd5b8101908080519060200190929190505050905063150b7a0260e01b7bffffffffffffffffffffffffffffffffffffffffffffffffffffffff1916817bffffffffffffffffffffffffffffffffffffffffffffffffffffffff1916149150505b949350505050565b6000806002600084815260200190815260200160002060009054906101000a900473ffffffffffffffffffffffffffffffffffffffff169050600073ffffffffffffffffffffffffffffffffffffffff168173ffffffffffffffffffffffffffffffffffffffff161415915050919050565b8273ffffffffffffffffffffffffffffffffffffffff166132e282611e68565b73ffffffffffffffffffffffffffffffffffffffff16141515613350576040517f08c379a000000000000000000000000000000000000000000000000000000000815260040180806020018281038252602a815260200180614f3b602a913960400191505060405180910390fd5b600073ffffffffffffffffffffffffffffffffffffffff168273ffffffffffffffffffffffffffffffffffffffff16141515156133d8576040517f08c379a000000000000000000000000000000000000000000000000000000000815260040180806020018281038252602c815260200180614ebd602c913960400191505060405180910390fd5b6133e18161438f565b613428600460008573ffffffffffffffffffffffffffffffffffffffff1673ffffffffffffffffffffffffffffffffffffffff16815260200190815260200160002061444f565b61346f600460008473ffffffffffffffffffffffffffffffffffffffff1673ffffffffffffffffffffffffffffffffffffffff168152602001908152602001600020614472565b816002600083815260200190815260200160002060006101000a81548173ffffffffffffffffffffffffffffffffffffffff021916908373ffffffffffffffffffffffffffffffffffffffff160217905550808273ffffffffffffffffffffffffffffffffffffffff168473ffffffffffffffffffffffffffffffffffffffff167fddf252ad1be2c89b69c2b068fc378daa952ba7f163c4a11628f55a4df523b3ef60405160405180910390a4505050565b60006135796001600660008673ffffffffffffffffffffffffffffffffffffffff1673ffffffffffffffffffffffffffffffffffffffff1681526020019081526020016000208054905061448890919063ffffffff16565b9050600060076000848152602001908152602001600020549050818114151561366c576000600660008673ffffffffffffffffffffffffffffffffffffffff1673ffffffffffffffffffffffffffffffffffffffff168152602001908152602001600020838154811015156135ea57fe5b9060005260206000200154905080600660008773ffffffffffffffffffffffffffffffffffffffff1673ffffffffffffffffffffffffffffffffffffffff1681526020019081526020016000208381548110151561364457fe5b9060005260206000200181905550816007600083815260200190815260200160002081905550505b600660008573ffffffffffffffffffffffffffffffffffffffff1673ffffffffffffffffffffffffffffffffffffffff1681526020019081526020016000208054809190600190036136be9190614d0b565b5050505050565b600660008373ffffffffffffffffffffffffffffffffffffffff1673ffffffffffffffffffffffffffffffffffffffff168152602001908152602001600020805490506007600083815260200190815260200160002081905550600660008373ffffffffffffffffffffffffffffffffffffffff1673ffffffffffffffffffffffffffffffffffffffff1681526020019081526020016000208190806001815401808255809150509060018203906000526020600020016000909192909190915055505050565b61379581613250565b15151561380a576040517f08c379a00000000000000000000000000000000000000000000000000000000081526004018080602001828103825260178152602001807f546f6b656e20494420616c72656164792065786973747300000000000000000081525060200191505060405180910390fd5b600073ffffffffffffffffffffffffffffffffffffffff168273ffffffffffffffffffffffffffffffffffffffff16141515156138af576040517f08c379a000000000000000000000000000000000000000000000000000000000815260040180806020018281038252601b8152602001807f43616e6e6f74206d696e7420746f207a65726f2061646472657373000000000081525060200191505060405180910390fd5b816002600083815260200190815260200160002060006101000a81548173ffffffffffffffffffffffffffffffffffffffff021916908373ffffffffffffffffffffffffffffffffffffffff160217905550613948600460008473ffffffffffffffffffffffffffffffffffffffff1673ffffffffffffffffffffffffffffffffffffffff168152602001908152602001600020614472565b808273ffffffffffffffffffffffffffffffffffffffff16600073ffffffffffffffffffffffffffffffffffffffff167fddf252ad1be2c89b69c2b068fc378daa952ba7f163c4a11628f55a4df523b3ef60405160405180910390a45050565b6008805490506009600083815260200190815260200160002081905550600881908060018154018082558091505090600182039060005260206000200160009091929091909150555050565b60606000821415613a3c576040518060400160405280600181526020017f30000000000000000000000000000000000000000000000000000000000000008152509050613b29565b600082905060005b600082141515613a6a578080600101915050600a82811515613a6257fe5b049150613a44565b6060816040519080825280601f01601f191660200182016040528015613a9f5781602001600182028038833980820191505090505b50905060006001830390505b600086141515613b2157600a86811515613ac157fe5b0660300160f81b828280600190039350815181101515613add57fe5b9060200101907effffffffffffffffffffffffffffffffffffffffffffffffffffffffffffff1916908160001a905350600a86811515613b1957fe5b049550613aab565b819450505050505b919050565b6060613b6a83836040518060200160405280600081525060405180602001604052806000815250604051806020016040528060008152506144d2565b905092915050565b613b7a614ca9565b60405180604001604052807f1936c240636390dc823e3a728e94b208eb53c6756d81da57ec3425e05d43ac1081526020017f2d70ff78e8216bf29d58923a686d9738278b8ce2fd822e197c85b09286d155668152508160000181905250604051806040016040528060405180604001604052807f2b4daf047abe2e7f0b311118c1b963b63695dc0d769cea78849604434de055bf81526020017f29c13ecb6f33dbc4b3b8a02e2e255511ce4c26a8a2f299efcc94caf2de4fce00815250815260200160405180604001604052807f1da9020008df7f549751f8a251af3b2dc4a2ad3e0870de54acaedd9fc1b47e1781526020017f25ea0d7e2b29de431b86a943db30dbf4d98f68df9ca8a9628d14d1591e817d908152508152508160200181905250604051806040016040528060405180604001604052807f011016e22ae045444f50fb80f246ec486c7e02af09132cd38c4fcf484983e4f281526020017ee83c788c2878d1d5eba3ed49b0d81e4c0487dedc3e4d1c2baab5833785b62f815250815260200160405180604001604052807f05eb89e741ed5b5d611cebf92d1ed02cd6f3311089f0d400df7d9ced5a48fd4181526020017f132a90a3b0d369ccd66e2a5ba04a935e44d8ad5dca93a76bba592a578130a9118152508152508160400181905250604051806040016040528060405180604001604052807f065f6a3323a2abffd621fc263f348eb914904b68d5897729ae34a6b9d33f085281526020017f0c3b60f59d3bd50328a04c0ff6d979199685d0526f89f6ac29d6174ce24707a2815250815260200160405180604001604052807f26e7ebce2b44efef6b6315938e33f0a8ecc82dbad635c9efa681ed85bbb5998281526020017f12e0f3721230a0f38f6c9913048d5230fd2615ef3ff7f6ee4b20dfe0bdea1a8681525081525081606001819052506003604051908082528060200260200182016040528015613e6057816020015b613e4d614d37565b815260200190600190039081613e455790505b50816080018190525060405180604001604052807f1ef8d5d70234aa3e3d8fc4e3f1ca01c703182580b581106798f05b35fd5082c081526020017f2e468046d4ae35138e2032224925d5389712e5ca5e68f4d9c1e1858e7d65602d81525081608001516000815181101515613ed157fe5b9060200190602002018190525060405180604001604052807f0cefae0e3fa6aa25a4485ab7b21d32794d3431a4e4a5ca82ea427b831534c2c981526020017f23e3d2035b70884e547638b111870f5957f58ad8068f7a21470164ad361e1e8881525081608001516001815181101515613f4657fe5b9060200190602002018190525060405180604001604052807f030ffe78ec3de150e8688db619bde78e21e894754e6be5ed83742677628b24bc81526020017f053392f88cfa9092dfbc0bd199d8159e56207779473c24fc601eff91bcd345ca81525081608001516002815181101515613fbb57fe5b9060200190602002018190525090565b613fd3614cf1565b613fdb614d51565b8360000151816000600381101515613fef57fe5b602002018181525050836020015181600160038110151561400c57fe5b6020020181815250508281600260038110151561402557fe5b6020020181815250506000606083608084600060076107d05a03f19050806000811461405057614052565bfe5b5080151561405f57600080fd5b505092915050565b61406f614cf1565b614077614d73565b836000015181600060048110151561408b57fe5b60200201818152505083602001518160016004811015156140a857fe5b60200201818152505082600001518160026004811015156140c557fe5b60200201818152505082602001518160036004811015156140e257fe5b602002018181525050600060608360c084600060066107d05a03f19050806000811461410d5761410f565bfe5b5080151561411c57600080fd5b505092915050565b61412c614cf1565b60007f30644e72e131a029b85045b68181585d97816a916871ca8d3c208c16d87cfd47905060008360000151148015614169575060008360200151145b1561418d5760405180604001604052806000815260200160008152509150506141bb565b6040518060400160405280846000015181526020018285602001518115156141b157fe5b0683038152509150505b919050565b6000606060046040519080825280602002602001820160405280156141ff57816020015b6141ec614d37565b8152602001906001900390816141e45790505b5090506060600460405190808252806020026020018201604052801561423f57816020015b61422c614d95565b8152602001906001900390816142245790505b5090508a82600081518110151561425257fe5b906020019060200201819052508882600181518110151561426f57fe5b906020019060200201819052508682600281518110151561428c57fe5b90602001906020020181905250848260038151811015156142a957fe5b90602001906020020181905250898160008151811015156142c657fe5b90602001906020020181905250878160018151811015156142e357fe5b906020019060200201819052508581600281518110151561430057fe5b906020019060200201819052508381600381518110151561431d57fe5b9060200190602002018190525061433482826147b2565b9250505098975050505050505050565b60008060007fc5d2460186f7233c927e7db2dcc703c0e500b653ca82273b7bfad8045d85a47060001b9050833f915080821415801561438657506000801b8214155b92505050919050565b600073ffffffffffffffffffffffffffffffffffffffff166003600083815260200190815260200160002060009054906101000a900473ffffffffffffffffffffffffffffffffffffffff1673ffffffffffffffffffffffffffffffffffffffff1614151561444c5760006003600083815260200190815260200160002060006101000a81548173ffffffffffffffffffffffffffffffffffffffff021916908373ffffffffffffffffffffffffffffffffffffffff1602179055505b50565b6144676001826000015461448890919063ffffffff16565b816000018190555050565b6001816000016000828254019250508190555050565b60006144ca83836040518060400160405280601e81526020017f536166654d6174683a207375627472616374696f6e206f766572666c6f770000815250614a45565b905092915050565b6060808690506060869050606086905060608690506060869050606081518351855187518951010101016040519080825280601f01601f19166020018201604052801561452e5781602001600182028038833980820191505090505b509050606081905060008090506000809050600090505b88518110156145b957888181518110151561455c57fe5b90602001015160f81c60f81b838380600101945081518110151561457c57fe5b9060200101907effffffffffffffffffffffffffffffffffffffffffffffffffffffffffffff1916908160001a9053508080600101915050614545565b600090505b87518110156146325787818151811015156145d557fe5b90602001015160f81c60f81b83838060010194508151811015156145f557fe5b9060200101907effffffffffffffffffffffffffffffffffffffffffffffffffffffffffffff1916908160001a90535080806001019150506145be565b600090505b86518110156146ab57868181518110151561464e57fe5b90602001015160f81c60f81b838380600101945081518110151561466e57fe5b9060200101907effffffffffffffffffffffffffffffffffffffffffffffffffffffffffffff1916908160001a9053508080600101915050614637565b600090505b85518110156147245785818151811015156146c757fe5b90602001015160f81c60f81b83838060010194508151811015156146e757fe5b9060200101907effffffffffffffffffffffffffffffffffffffffffffffffffffffffffffff1916908160001a90535080806001019150506146b0565b600090505b845181101561479d57848181518110151561474057fe5b90602001015160f81c60f81b838380600101945081518110151561476057fe5b9060200101907effffffffffffffffffffffffffffffffffffffffffffffffffffffffffffff1916908160001a9053508080600101915050614729565b82995050505050505050505095945050505050565b6000815183511415156147c457600080fd5b60008351905060006006820290506060816040519080825280602002602001820160405280156148035781602001602082028038833980820191505090505b50905060008090505b838110156149e157868181518110151561482257fe5b9060200190602002015160000151826000600684020181518110151561484457fe5b9060200190602002018181525050868181518110151561486057fe5b9060200190602002015160200151826001600684020181518110151561488257fe5b9060200190602002018181525050858181518110151561489e57fe5b906020019060200201516000015160006002811015156148ba57fe5b602002015182600260068402018151811015156148d357fe5b906020019060200201818152505085818151811015156148ef57fe5b9060200190602002015160000151600160028110151561490b57fe5b6020020151826003600684020181518110151561492457fe5b9060200190602002018181525050858181518110151561494057fe5b9060200190602002015160200151600060028110151561495c57fe5b6020020151826004600684020181518110151561497557fe5b9060200190602002018181525050858181518110151561499157fe5b906020019060200201516020015160016002811015156149ad57fe5b602002015182600560068402018151811015156149c657fe5b9060200190602002018181525050808060010191505061480c565b506149ea614dbb565b60006020826020860260208601600060086107d05a03f190508060008114614a1157614a13565bfe5b50801515614a2057600080fd5b6000826000600181101515614a3157fe5b602002015114159550505050505092915050565b60008383111582901515614af4576040517f08c379a00000000000000000000000000000000000000000000000000000000081526004018080602001828103825283818151815260200191508051906020019080838360005b83811015614ab9578082015181840152602081019050614a9e565b50505050905090810190601f168015614ae65780820380516001836020036101000a031916815260200191505b509250505060405180910390fd5b5060008385039050809150509392505050565b604051806101000160405280614b1b614d37565b8152602001614b28614d95565b8152602001614b35614d37565b81525090565b604051806101600160405280600073ffffffffffffffffffffffffffffffffffffffff168152602001614b6c614ddd565b8152602001614b79614dff565b8152602001614b86614ddd565b8152602001614b93614ddd565b81525090565b8260028101928215614bc8579160200282015b82811115614bc7578251825591602001919060010190614bac565b5b509050614bd59190614e2c565b5090565b82600280028101928215614c18579160200282015b82811115614c1757825182906002614c07929190614b99565b5091602001919060020190614bee565b5b509050614c259190614e51565b5090565b828054600181600116156101000203166002900490600052602060002090601f016020900481019282601f10614c6a57805160ff1916838001178555614c98565b82800160010185558215614c98579182015b82811115614c97578251825591602001919060010190614c7c565b5b509050614ca59190614e2c565b5090565b604051806101e00160405280614cbd614d37565b8152602001614cca614d95565b8152602001614cd7614d95565b8152602001614ce4614d95565b8152602001606081525090565b604051806040016040528060008152602001600081525090565b815481835581811115614d3257818360005260206000209182019101614d319190614e2c565b5b505050565b604051806040016040528060008152602001600081525090565b6040518060600160405280600390602082028038833980820191505090505090565b6040518060800160405280600490602082028038833980820191505090505090565b6040518060800160405280614da8614ddd565b8152602001614db5614ddd565b81525090565b6040518060200160405280600190602082028038833980820191505090505090565b6040518060400160405280600290602082028038833980820191505090505090565b60405180608001604052806002905b614e16614ddd565b815260200190600190039081614e0e5790505090565b614e4e91905b80821115614e4a576000816000905550600101614e32565b5090565b90565b614e7a91905b80821115614e765760008181614e6d9190614e7d565b50600201614e57565b5090565b90565b50600081556001016000905556fe476976656e20616464726573732063616e6e6f7420626520746865206f776e6572206f662074686520746f6b656e204944546f6b656e206d757374206265207472616e7366657272656420746f20612076616c696420616464726573735472616e73616374696f6e207375636365737366756c6c792076657269666965642e43616c6c657220646f6573206e6f742068617665207065726d697373696f6e20746f2061646420617070726f7665727346726f6d2061646472657373206973206e6f7420746865206f776e6572206f662074686520746f6b656e476976656e20616464726573732063616e6e6f74206265207468652073656e6465722061646472657373a165627a7a723058203ffa5b7ff2ac414ea0a1fd8faa52925e0df90ab07086b73575785ec3aef0138f002968747470733a2f2f73332d75732d776573742d322e616d617a6f6e6177732e636f6d2f756461636974792d626c6f636b636861696e2f63617073746f6e652f",
  "source": "pragma solidity >=0.4.21 <0.6.0;\r\n\r\nimport \"./verifier.sol\";\r\nimport \"./ERC721Mintable.sol\";\r\n\r\n// TODO define a contract call to the zokrates generated solidity contract <Verifier> or <renamedVerifier>\r\n// contract MyVerifier is Verifier {\r\n//     function verifyTx(\r\n//             uint[2] memory a,\r\n//             uint[2][2] memory b,\r\n//             uint[2] memory c,\r\n//             uint[2] memory input\r\n//     ) public returns (bool r) {\r\n//         super.verifyTx(a, b, c, input);\r\n//     }\r\n// }\r\n\r\n// TODO define another contract named SolnSquareVerifier that inherits from your ERC721Mintable class\r\ncontract SolnSquareVerifier is TokenyHouses, Verifier {\r\n    struct Solution {\r\n        address to;\r\n        uint[2] a;\r\n        uint[2][2] b;\r\n        uint[2] c;\r\n        uint[2] input;\r\n    }\r\n\r\n    Solution[] solutions;\r\n    mapping(bytes32 => bool) uniqueSolutions;\r\n\r\n    event SolutionAdded(address to, uint[2] a, uint[2][2] b, uint[2] c, uint[2] input);\r\n    event TestEvent(string a, string b);\r\n\r\n    function doesSolutionExist(bytes32 key) public view returns (bool) {\r\n        return uniqueSolutions[key];\r\n    }\r\n\r\n    function createKey(address to, uint[2] memory a, uint[2][2] memory b, uint[2] memory c, uint[2] memory input) public pure returns (bytes32) {\r\n        return keccak256(abi.encodePacked(to, a, b, c, input));\r\n    }\r\n\r\n    function addSolution(address to, uint[2] memory a, uint[2][2] memory b, uint[2] memory c, uint[2] memory input) public {\r\n        Solution memory newSolution;\r\n        newSolution.to = to;\r\n        newSolution.a = a;\r\n        newSolution.b = b;\r\n        newSolution.c = c;\r\n        newSolution.input = input;\r\n        bytes32 newSolutionKey = createKey(newSolution.to, newSolution.a, newSolution.b, newSolution.c, newSolution.input);\r\n        require(doesSolutionExist(newSolutionKey) == false, \"Solution already exists\");\r\n        require(super.verifyTx(a, b, c, input), \"Solution could not be verified\");\r\n        solutions.push(newSolution);\r\n        uniqueSolutions[newSolutionKey] = true;\r\n        emit SolutionAdded(newSolution.to, newSolution.a, newSolution.b, newSolution.c, newSolution.input);\r\n    }\r\n\r\n    function mintNFT(address to, uint256 tokenId, uint[2] memory a, uint[2][2] memory b, uint[2] memory c, uint[2] memory input) public {\r\n        addSolution(to, a, b, c, input);\r\n        super.mint(to, tokenId);\r\n    }\r\n}\r\n\r\n\r\n// TODO define a solutions struct that can hold an index & an address\r\n\r\n\r\n// TODO define an array of the above struct\r\n\r\n\r\n// TODO define a mapping to store unique solutions submitted\r\n\r\n\r\n\r\n// TODO Create an event to emit when a solution is added\r\n\r\n\r\n\r\n// TODO Create a function to add the solutions to the array and emit the event\r\n\r\n\r\n\r\n// TODO Create a function to mint new NFT only after the solution has been verified\r\n//  - make sure the solution is unique (has not been used before)\r\n//  - make sure you handle metadata as well as tokenSuplly\r\n\r\n\r\n\r\n\r\n\r\n\r\n\r\n\r\n\r\n\r\n\r\n\r\n\r\n\r\n\r\n\r\n\r\n\r\n\r\n\r\n\r\n\r\n\r\n\r\n\r\n\r\n",
  "sourcePath": "C:\\Users\\Manthony\\Documents\\Nanodegree\\Blockchain-Capstone\\eth-contracts\\contracts\\SolnSquareVerifier.sol",
  "compiler": {
    "name": "solc",
    "version": "0.5.5+commit.47a71e8f.Emscripten.clang"
  },
  "schemaVersion": "3.0.23",
  "updatedAt": "2020-04-27T09:44:24.625Z",
  "networkType": "ethereum",
  "devdoc": {
    "methods": {
      "isApprovedForAll(address,address)": {
        "details": "Tells whether an operator is approved by a given owner\r",
        "params": {
          "operator": "operator address which you want to query the approval of\r",
          "owner": "owner address which you want to query the approval of\r"
        },
        "return": "bool whether the given operator is approved by the given owner\r"
      },
      "setApprovalForAll(address,bool)": {
        "details": "Sets or unsets the approval of a given operator\r An operator is allowed to transfer all tokens of the sender on their behalf\r",
        "params": {
          "approved": "representing the status of the approval to be set\r",
          "to": "operator address to set the approval\r"
        }
      },
      "supportsInterface(bytes4)": {
        "details": "implement supportsInterface(bytes4) using a lookup table\r"
      },
      "tokenByIndex(uint256)": {
        "details": "Gets the token ID at a given index of all the tokens in this contract\r Reverts if the index is greater or equal to the total number of tokens\r",
        "params": {
          "index": "uint256 representing the index to be accessed of the tokens list\r"
        },
        "return": "uint256 token ID at the given index of the tokens list\r"
      },
      "tokenOfOwnerByIndex(address,uint256)": {
        "details": "Gets the token ID at a given index of the tokens list of the requested owner\r",
        "params": {
          "index": "uint256 representing the index to be accessed of the requested tokens list\r",
          "owner": "address owning the tokens list to be accessed\r"
        },
        "return": "uint256 token ID at the given index of the tokens list owned by the requested address\r"
      },
      "totalSupply()": {
        "details": "Gets the total amount of tokens stored by the contract\r",
        "return": "uint256 representing the total amount of tokens\r"
      }
    }
  },
  "userdoc": {
    "methods": {}
  }
}